:020000040800F2
:1000000038050020C900000825190008A9170008B4
:1000100000000000000000000000000000000000E0
:100020000000000000000000000000002919000886
:100030000000000000000000271900082B1900082C
:10004000DB00000800000000DB000008DB00000807
:10005000DB000008DB000008DB000008DB00000814
:10006000000000008D070008DB000008DB0000082E
:10007000DB000008DB000008DB00000800000000D7
:10008000DB000008DB00000800000000DB000008C7
:10009000DB000008DB000008DB000008DB000008D4
:1000A000DB000008DB000008DB000008DB000008C4
:1000B000DB0000080348854600F054FA004800477A
:1000C00039270008380500200448804704480047C5
:1000D000FEE7FEE7FEE7FEE7FEE7FEE7AD190008F4
:1000E000B500000830B50B4601460020202201244F
:1000F00009E00D46D5409D4205D31D469540491B5C
:100100002546954040191546521E002DF1DC30BDA4
:10011000F0B51FB40646002082B005464024019188
:1001200000901BE0019922460F46304600F020F86F
:10013000049A059B801A994110D31046194622460D
:1001400000F039F8361A8F4101972246012000212C
:10015000009F00F030F838184D4100902046641E92
:100160000028DFDC019B00982946324607B0F0BD2D
:1001700010B5202A04DB0846203AD040002110BDEB
:100180000B46D340D0402024A21A91400843194680
:1001900010BDD2B201E00270401C491EFBD2704774
:1001A0000022F6E710B513460A4604461946FFF743
:1001B000F0FF204610BD10B5202A04DB0146203A8E
:1001C0009140002010BD914020239C1A0346E3403B
:1001D0001943904010BD0000F0B50746084658404E
:1001E00087B0C00F049048000E46590040084908E7
:1001F000BC1A884105D2384631461E4617460B4682
:1002000002465800400810434CD0300D0390400582
:100210005900400D490D0590401A0290402872DAAD
:1002200018030121000B090508430190049800926E
:10023000002805D001995242002088410092019087
:10024000029840210A1A01990098FFF7B4FF054669
:100250000C466B4607CB00F097F9C0197141039A21
:100260000E0D0023D71756401A467A40164344D045
:10027000049A002A2DD0029A012A039A15DC12054D
:10028000C01A914101263605001C7141D20F059E0E
:10029000D2070093019202962A46234600F094F971
:1002A00007B0F0BD38463146FAE71605224A0F4638
:1002B000B218C01AB74101210905001C4F410018AE
:1002C0007F41114618187941E20F10436D196441BE
:1002D00013E0E2076D0815436408C2071443039A4C
:1002E00001261205C01A91413605001C7141CE0746
:1002F000400830434908C01851412A46234600F0BF
:1003000056F9CDE7FFE7049801224000C117121A01
:1003100000238B4104983146C417381AA141EEE7F7
:1003200030B40124E407634030BC55E730B4012405
:10033000E407614030BC4FE70000E0FFF0B51FB4B8
:1003400088B00B990998002448400999C00F4900CA
:1003500049080991C0070B990090490049080B9181
:1003600009990898A64608431CD00B990A98084397
:1003700018D0099801244000420D4800410D099809
:1003800024050003000B204309900B980003000B89
:1003900020430B9050181C4940180022019014462D
:1003A000104605E0002001460DB0F0BD032801DA3B
:1003B000034600E003239C46C11A0AAE0AE05F0030
:1003C00008ADED5B4F00F75B7D430027AA187C4129
:1003D000491C5B1E6145F2DD410004AB5A52210409
:1003E000120C0A43240C401C0828DFDB0198029001
:1003F0000099704601910090059B049A0799069810
:1004000000F0E2F8D0E700000DFCFFFFF0B50C466D
:100410005C4085B0E40FE40703944C0000266408B8
:1004200059009446490802460296224321D062466A
:100430000A431ED06200570D4A000E032303550DD8
:10044000012402462C492405781B1B0B360B40184F
:1004500023432643614600901C46501AB44103D3FF
:100460000098401C009002E0921800985B41002820
:1004700003DA0020014605B0F0BD00200121090586
:100480000746864611E064461D46141BB54106D357
:100490006546521BB341744607430C43A646CD073D
:1004A00040084908284392185B4105460D43EAD1AC
:1004B0001046184313D06046194650407140084317
:1004C00006D06046101AB34106D20122002306E08E
:1004D00000220123DB0702E00122D24353100098DF
:1004E00074460105381C6141029C039D0019694155
:1004F00000F05DF8BFE70000FD0300004A000903BB
:100500000123090B1B0519430A4B10B5520D9A42E2
:1005100002DA0020014610BD064B34339A4203DC58
:100520009A1AFFF725FE10BD034BD218FFF743FEC2
:1005300010BD0000FF030000CDFBFFFF10B5002938
:1005400004DB0124E40740428C412146002B04DBFC
:100550001C460123DB075242A341994200D190423D
:1005600010BD0000064C0125064E05E0E36807CCEF
:100570002B430C3C98471034B442F7D3FFF79EFD51
:10058000002800082028000810B5202A06DBCB1719
:100590000846203A1041C1170B4306E00B461341B1
:1005A000D0402024A21A91400843194610BD10B52E
:1005B000002B08DA0024401C614192185B411A4369
:1005C00001D14008400010BDF0B51FB482B005460F
:1005D0000C0003D0084601F0E3FB02E001F0E0FB71
:1005E00020300246009021462846FFF7E4FD049B98
:1005F000059A04460F4618431143084314D0184681
:1006000010431BD0009840210A1A18460599FFF79D
:10061000AFFD05460E46009A05990498FFF7CBFDFD
:10062000084305D0012004E02046394607B0F0BD5C
:100630000020C11705430E432C43374300990E9801
:100640006305401A7905E40A00220C43FD0A0A30CA
:1006500002D500200146E9E70105101969410C9C0B
:100660000D9D00196941FFF7A2FFDFE710B50146B4
:10067000406A826B50231A420AD1816B01225202D6
:10068000114381630168CA681205920F05D020E00A
:10069000006B026B0846904710BD827E002A18D17D
:1006A0000A68120715D58A6853070122002B09DB57
:1006B0004B680C24A3434B60816B13029943114395
:1006C000816306E0816B202319438163C16B114371
:1006D000C16300F013F910BD10B5406A816B402270
:1006E00011438163C16B04221143C16300F00EF911
:1006F00010BD10B5406A00F003F910BDF8B504460E
:1007000000200090206881688907890F012905D1A0
:100710000168C90731D1C16809042ED48168184A1B
:1007200010261140012500291AD1816829438160D2
:10073000154814490068FFF7D5FC00E0401E009002
:100740000028FBD100F0F6FB074611E000F0F2FBB9
:10075000C01B02280CD920680068C043C00707D01E
:10076000A06B3043A063E06B2843E0630120F8BD39
:1007700020680068C043C007E8D10020F8BD000031
:100780001700008040420F001000002010B5024802
:1007900000F03EFA10BD00006800002010B50446CD
:1007A0000068054940181421FFF79CFC8000206474
:1007B0000248E06310BD0000F8FFFDBF00000240EA
:1007C00030B5056C0124AC40C56B6C600468636097
:1007D0004368102B036803D099600068C26030BD85
:1007E0009A600068C16030BD72B6FEE7F8B50025BA
:1007F000044620340095227D012A39D00122227539
:1008000003689E68760767D4384F4E68BE424DD065
:100810009E6A0F78BA4016439E620123C26A1B0784
:100820009A421FD0012A1DD0022A1BD0032A19D0B8
:10083000042A17D0052A15D0062A13D0072A11D06A
:1008400002688B6856697607760FB3420AD05369FF
:10085000DB08DB005361006842690B7A5B075B0FC2
:100860001A4342610A68102A04D0112A02D038E0E3
:100870000220F8BD1E488368102A07D00122920585
:10088000134383600868102803D02AE00122D205B0
:10089000F6E7194817490068FFF724FC0A21484386
:1008A00000E0401E00900028FBD11AE0986A0E7804
:1008B000B240904398620968102901D0112910D1E3
:1008C0000B488268102904D0012189058A4382607F
:1008D00007E00121C905F9E7816B202211438163FB
:1008E0000125002020752846F8BD000001100000F9
:1008F0000027014040420F00100000207047000018
:100900000149012008707047000000207047000076
:10091000F8B500260446002805D0A06B25462035F2
:10092000002802D007E00120F8BD0020E063287510
:10093000204600F0A9F8A06B1022C006002870DB4A
:100940002068816849076CD4A16B13019943022385
:100950001943A16381688907890F012905D10168BD
:10096000C9070FD1C16809040CD4C1681823994381
:10097000A3681943C1602068016963688900890818
:10098000194301612068C1683D4B1940C160207E58
:10099000617E8003C9030843A17E4B031843A36A09
:1009A000012B02D001231B0300E000231843E3685E
:1009B00018432369022B09D0002318432B79E57EC5
:1009C0005B0018430123012D02D00AE00423F4E761
:1009D000002927D0A16B20252943A163E16B19438E
:1009E000E163E1690D46FF3DC23D02D0256A29431E
:1009F00008432168CD680543CD600125E16A2D07D4
:100A0000A94213D0012911D002290FD003290DD0FA
:100A100004290BD0052909D0062907D0072905D0BC
:100A200010E028E0012109040843DAE721684D6954
:100A3000ED08ED004D6121684D69A78D7F077F0F9F
:100A40003D434D612168C9680E4D2940814207D15F
:100A50000020E063A06B80088000401CA06308E0D9
:100A6000A06B022188431043A063E06B1843E0634E
:100A700001263046F8BDA06B1043A063F8E70000E4
:100A80001902FEFFE7FF3F8370B586B006461421CA
:100A90006846FFF785FB1B49306888422FD11A4909
:100AA0008A69401502438A618A69024005924A694F
:100AB000000202434A614969002501400591FD2079
:100AC000009003200190092069460295C00600F0BD
:100AD0005FF90E480E4C21C4802025606060400004
:100AE000A060256180006561E0600948083C00F075
:100AF000DDF8002801D0FFF777FE3463666206B0A8
:100B000070BD0000002401400010024008000240B7
:100B10006800002070B504462168002089684907F4
:100B200021D425462035297D01291CD00121297594
:100B3000617E012904D02046FFF7E0FD002811D195
:100B4000A16B0A4A1140FF2201321143A163002127
:100B5000E163297522681C21116021688A680423D9
:100B60001A438A6070BD022070BD0000FEF1FFFFD5
:100B7000F7B5044600680025806840073DD4264646
:100B80002036307D01280AD001273775607E012884
:100B900007D02046FFF7B2FD050002D02EE002206C
:100BA000FEBDA06B16490840FF2101310843A06338
:100BB0000020E0633075216B12488862216B124877
:100BC000C862216B1148086321681C2008602068F6
:100BD00041681022114341602068C1683943C160F7
:100BE0002168206B4031029B019A00F089F820684F
:100BF000816804221143816000E002252846FEBD81
:100C0000FEF1FFFF6D060008F3060008D906000894
:100C1000F0B4C16B0D6801680C680422066C1346C1
:100C2000B3402B420DD063070BD50B689B0602D453
:100C30000B6893430B60016C8A40C16B4A60C16AC8
:100C400019E00227B74002462F4001232032002F2F
:100C500015D0A70713D50C68A40604D40C680A2580
:100C6000AC430C605370036C02219940C36B596014
:100C700000211170816A002916D0F0BC08470827AE
:100C8000B7402F4210D024070ED50C680E25AC4378
:100C90000C60046C1946A140C46B6160836353709F
:100CA00000211170016BE6E7F0BC704770B50400DD
:100CB00021D002212046203005464170226811686B
:100CC0000E48A3680140606826691843E36833430F
:100CD000184363691843A3691843E3691843084339
:100CE00010602046FFF75AFD0021A16301206870C3
:100CF0002970084670BD012070BD00000FC0FFFFC5
:100D0000F8B504468C46203001780025012909D029
:100D10000126067041780027012905D007700225B9
:100D20002846F8BD0220F8BD02214170A763206863
:100D3000016849084900016061462046FFF740FD0F
:100D4000E06A00282068016802D00E22114306E004
:100D50000A22114301602068016804229143016066
:100D60002068016831430160DAE7000070B504468D
:100D700000F0E0F80546601C02D004480078241812
:100D800000F0D8F8401BA042FAD370BD0400002048
:100D9000F8B5002303240125BAE02E469E40B44650
:100DA00032407CD00E79B607B60F012E01D0022E4C
:100DB00017D186682746B6465E00B740009676464D
:100DC000BE43B646CF68009EB7407646374387603D
:100DD00046686746BE430F79FF06FF0F9F403743C3
:100DE00047600E79F643B6070ED0C6682746B4466C
:100DF0005E00B646B7406646BE43B4468F68764648
:100E0000B74066463743C7600E79B607B60F022E65
:100E100014D1DE08B60036180096366A5F07B4466D
:100E2000FE0E0F27B646B7406646BE43B4460F696E
:100E30007646B74066463743009E376206682746C7
:100E4000B4465E00B646B7406646BE430F79B44628
:100E5000BF07BF0F7646B7406646374307604E6808
:100E6000B603B60F53D02D4FBE692E43BE61BE6987
:100E70009F08F607F60F2A4EBF00BE190096B66807
:100E80000F27B4469E07360FB646B7406646BE43A8
:100E90000927FF06B446B84202D1002710E036E029
:100EA000204FB84201D101270AE01F4FB84201D1BB
:100EB000022705E01D4FB84201D1032700E00527B6
:100EC0007646B74066463743009EB760184EB66810
:100ED0004F689643FF0200D51643154FBE60FE686B
:100EE0004F689643BF0200D51643114FFE607E68DF
:100EF0004F689643BF0300D516430D4F7E603E6892
:100F00004F689643FF0300D51643094A16605B1CE1
:100F10000A681646DE4000D03FE7F8BD00100240E8
:100F2000000001400004004800080048000C004890
:100F30000004014001488068704700000400002060
:100F40000248816802788918816070470400002097
:100F500010B506480168102211430160032000F01B
:100F600007F800F027F8002010BD00000020024024
:100F700070B504460D4D7D202978C000FFF7B2F80A
:100F800001460B480068FFF7ADF800F02DFB002884
:100F900009D1042C07D200222146401E00F02AF875
:100FA00000206C6070BD012070BD000004000020B6
:100FB0001000002008B508488169012211438161B1
:100FC000816911400091C26901040A43C261C0698C
:100FD0000840009008BD000000100240002805DB1A
:100FE000C106C90E01208840014908607047000011
:100FF00000E100E010B500F003FF10BDF8B50546B4
:101000000068354CC00352D5E0690026C00007D403
:10101000E16920040143E161E16901400126009199
:101020002E480168C90510D401688215114301607A
:10103000FFF780FF074604E0FFF77CFFC01B642832
:1010400024D826480068C005F6D5206A03273F0249
:10105000384020D06968394081421CD0206A226A19
:10106000B843012109040A432262226A8A432262A8
:101070002062C0070FD0FFF75DFF009008E0FFF788
:1010800059FF0099411A1648814201D90320F8BD41
:10109000206A8007F3D5206A6968B8430843206254
:1010A000002E04D0E169012000078143E161287826
:1010B000C00705D0206BA968800880000843206322
:1010C0002878800605D5206B10218843E9680843FD
:1010D00020630020F8BD00000010024000700040B6
:1010E00088130000F8B50F46060059D03A4D28681D
:1010F000C007C00FB84209D22868400840003843F2
:1011000028602868C007C00FB84249D13068334C06
:1011100081070CD5400704D5606807210902084300
:1011200060606068F0218843B1680843606030788F
:10113000C00726D0706801280ED0216802280ED082
:10114000890700292CDA61688908890001436160F8
:10115000FFF7F0FE00900DE021688903F1E78901B7
:10116000EFE7FFF7E7FE0099411A1D48814201D9D8
:101170000320F8BD60680C2108407168890088422E
:10118000EFD12868C007C00FB8420BD928684008C3
:101190004000384328602868C007C00FB84201D01B
:1011A0000120F8BD3078400706D5606807210902A4
:1011B0008843F1680843606000F028F86168094AD4
:1011C0000906090F515CC840074908600320FFF772
:1011D000CFFE0020F8BD00000020024000100240B9
:1011E00088130000E8270008100000200448054983
:1011F00000684968044A4905490F515CC840704776
:101200001000002000100240F827000810B5104A16
:1012100051680C200B4603400E48042B17D0082BB6
:1012200015D18B020C4C1B0FE45CD26A0A4B1207DF
:10123000120F10339A5CC90305D500231946FEF737
:1012400067FF214601E02046044900F0C0FD10BDC3
:101250000010024000127A00C827000800093D0073
:10126000FEB5040070D02078DC4DC0074AD0686815
:101270000007800F012807D068680007800F022848
:1012800009D16868C00306D5286880033AD560682C
:101290000028E7D036E06168012914D001208004DD
:1012A000002901D0052914D02A68012109048A43A4
:1012B0002A602968814329606068002816D0FFF7FA
:1012C00039FE06460EE0286801210904084328601B
:1012D000F2E7296801432960F5E7FFF72BFE801B41
:1012E00064286ED828688003F7D50BE0FFF722FE4C
:1012F000064604E0FFF71EFE801B6428F1D828682C
:101300008003F7D420780126800700283CDA68683B
:101310000007800F07D068680007800F022809D1F6
:101320006868C00306D42868800716D5E0680128DD
:101330000AD112E0E0680028286816D030432860FF
:10134000FFF7F8FD074605E043E1FFF7F3FDC01B9B
:101350000228C6D828688007F7D52868F82188436E
:101360002169C900084328600EE040084000286059
:10137000FFF7E0FD074604E0FFF7DCFDC01B022895
:10138000AFD828688007F7D42078000722D5E06915
:101390000028686A0ED030436862FFF7CBFD07462D
:1013A00004E0FFF7C7FDC01B02289AD8686A8007CF
:1013B000F7D50FE0400840006862FFF7BBFD074625
:1013C00005E09DE0FFF7B6FDC01B022889D8686ADA
:1013D0008007F7D4207804274007002860DA00202F
:1013E0000190E869C00008D4E969B8060143E961E1
:1013F000E969014001200091019079480168C9051F
:1014000011D40168821511430160FFF793FD00902C
:1014100005E0FFF78FFD0099401A642870D87048E6
:101420000068C005F5D5A06801280AD0002801D0C1
:10143000052810D0286A400840002862286AB8436E
:1014400001E0286A30432862A068002812D0FFF724
:1014500071FD00900AE0286A38432862F1E7FFF73F
:1014600069FD0099411A5F48814249D8286A80077E
:10147000F5D50DE0FFF75EFD009006E0FFF75AFDA1
:101480000099411A574881423AD8286A8007F5D412
:101490000198002804D0E969012000078143E9612F
:1014A0002078C00635D5606901280CD0401D686BD6
:1014B00023D038436863686B400840006863FFF7D7
:1014C00039FD064622E0686B38436863686B304339
:1014D0006863FFF72FFD064604E0FFF72BFD801B36
:1014E00002285BD8686B8007F7D5686BF8218843C2
:1014F000A169C900084368630BE0B8436863F4E777
:101500004CE0FFF717FD801B022847D8686B800767
:10151000F7D4206A00285ED069680907890F02297C
:1015200042D0012636060228286805D0B04328603C
:10153000FFF700FD044633E0B0432860FFF7FAFCF4
:10154000074604E0FFF7F6FCC01B022826D82868EF
:101550008001F7D4E86AE16A000900010843E86203
:10156000616AA06A084369683D22120491430843F6
:101570006860286830432860FFF7DCFC044604E01C
:10158000FFF7D8FC001B022808D828688001F7D58F
:1015900021E0FFF7CFFC001B022801D90320FEBD8C
:1015A00028688001F5D416E00128F8D06868E96A57
:1015B00001221204636A02409A420AD10907E26AD0
:1015C000090F914205D10F2189040840A16A884280
:1015D00001D00120FEBD0020FEBD00000010024031
:1015E0000070004088130000094910B5401E884271
:1015F00001D9012010BD074C60610321081F00F0D4
:10160000FFFB0020A06107202061002010BD00002A
:10161000FFFFFF0000E000E010B5040003D0E06F22
:10162000002802D007E0012010BD002178200155DC
:10163000204600F027F82420E06720680168490868
:1016400049000160204600F0A9FA0128ECD0606A48
:10165000002802D0204600F0AAF920684168012243
:10166000D2029143416020688168082291438160E1
:1016700020680168012211430160204600F0FCF956
:1016800010BD000010B586B0044614216846FEF770
:1016900087FD1349206888421FD1124882690121C1
:1016A00089030A43826182690A4005924269C9003E
:1016B0000A434261406908400590032040020090BF
:1016C000022001900020029003200390012004904A
:1016D00009206946C006FFF75BFB06B010BD00009D
:1016E0000038014000100240FFB50446C06F83B0CF
:1016F00017460D46202802D0022007B0F0BD002D6D
:101700000BD0002F09D00120A1680003814206D12F
:101710002069002803D1E80701D00120EDE700216E
:10172000842001512120E067FFF704FC2646403663
:101730000190378277820120A1680003814202D1A3
:101740002069002802D02F46002511E000270FE075
:1017500000228021204600F0B9FA002815D1002F80
:1017600017D02168387808857F1C708A401E7082E7
:10177000708A019B002806980090E9D10022402140
:10178000204600F0A3FA00280AD02020E0670320BA
:10179000B3E728882168C005C00D0885AD1CE4E7C3
:1017A0002020E0670020A8E7FEE700003EB5002407
:1017B0003449354800940194029412C00460082210
:1017C0004460C26001218160047444748474C474F0
:1017D000FF22C232846142610246183211710162F5
:1017E0000838FFF795F8002801D0FEF7FDFF01202B
:1017F0000003009401900624694623480294FEF7F2
:10180000F5FF002801D0FEF7EFFF022000906946A7
:101810001D48FEF7EBFF002801D0FEF7E5FF03208F
:10182000009069461848FEF7E1FF002801D0FEF756
:10183000DBFF0420009069461348FEF7D7FF00281D
:1018400001D0FEF7D1FF0520009069460E48FEF753
:10185000CDFF002801D0FEF7C7FF69460A48009473
:10186000FEF7C4FF002801D0FEF7BEFF072000905E
:1018700069460548FEF7BAFF002801D0FEF7B4FF1D
:101880003EBD0000002401402800002008B50848A3
:1018900041690122114341614069104000220090DA
:1018A00011460920FFF7A6FB0920FFF797FB08BDAB
:1018B0000010024008B50C4842690121C9040A43DE
:1018C000426142690A4000924269C9000A4342618A
:1018D00042690A400092426949110A4342614069E3
:1018E0000840009008BD00000010024010B50C48F0
:1018F0000A490160E1214902416000218160C16023
:1019000001618161C1610C22016242614162FFF7A4
:1019100083FE002801D0FEF767FF10BD00380140AC
:10192000AC000020FEE77047704710B5FFF708FBDA
:1019300010BD70B594B030216846FEF731FC00242C
:1019400001250F9412200595009010200E941094FC
:101950001394049006900D9405201294C0040C94E6
:10196000039502260A901194089609940B946846F0
:10197000FFF776FC002801D072B6FEE707200C9036
:101980000E9401210D960F940CA8FFF7ABFB0028D5
:1019900001D072B6FEE710A810951294FFF72EFB47
:1019A000002801D072B6FEE714B070BD704710B5C4
:1019B000818CC90707D001684A6801235B049A43F8
:1019C000836A1A434A60818C890707D501684A688F
:1019D00001231B049A43C36A1A434A60818C490756
:1019E00007D501684A6801239B049A43036B1A4395
:1019F0004A60818C090707D501684A680123DB0327
:101A00009A43436B1A434A60818CC90607D5026822
:101A1000916801231B039943836B19439160818C67
:101A2000890607D501688A6801235B039A43C36B63
:101A30001A438A60818C490612D503685A680121CD
:101A40000905046C8A4322435A60026C8A4207D11A
:101A50000268516803235B059943436C1943516045
:101A6000818C090607D501684A680123DB04806C74
:101A70009A4302434A6010BDFEB5074600258037F1
:101A800004467D60FFF756FA0190206800682646FC
:101A900000076036002819DA27480090012100224B
:101AA00049052046019B00F011F900280ED0EFF304
:101AB0001080012181F3108821680A6880239A43ED
:101AC0000A6080F310882020E06729E02068006821
:101AD000400728D51848009001210022890520469A
:101AE000019B00F0F3F800281DD0EFF310800121D6
:101AF00081F3108821680A68FF2321339A430A6022
:101B000080F31088EFF31080012181F310882168A1
:101B10008A68520852008A6080F31088202038605A
:101B200035760320FEBD2020E067386025666566B7
:101B300035760020FEBD0000FFFFFF0110B5EFF37A
:101B40001081012282F3108802681368FF24213477
:101B5000A343136081F31088EFF31081012282F315
:101B60001088026893685B085B00936081F31088BB
:101B7000016E01290BD1EFF31081012282F310884D
:101B8000026813681024A343136081F31088202295
:101B900080210A5000210166816610BD70B504469F
:101BA00080682169E2690843616900251143226860
:101BB000084311683F4B1940014311602168486890
:101BC000032212039043E26810434860A169206A2F
:101BD000084321688A680B231B029A4302438A60E8
:101BE00035492068884210D13448006B8007800F47
:101BF0000ED0012805D0022805D003280AD10221E1
:101C000009E0042107E0082105E02D49884201D1BF
:101C1000002100E010210120E369C003294A2A4E77
:101C2000834222D1002906D0022907D0042907D0F7
:101C3000082935D108E0FFF7D9FA03E0104603E0A0
:101C4000FFF7E4FA002830D0616840004A088018A5
:101C5000FEF748FA01461039B14221D81A49491C09
:101C600001400007400F08431DE0002906D002296B
:101C700007D0042907D0082912D108E0FFF7B6FAE7
:101C800003E0104603E0FFF7C1FA00280DD06168B9
:101C90004A081018FEF726FA01461039B14201D958
:101CA000012502E080B22168C8600020A066E066DD
:101CB000284670BDF369FFFF003801400010024064
:101CC0000044004000127A00EFFF0000FFB5064616
:101CD00081B080360546044660350A9F2EE0781CA8
:101CE0002CD0FFF727F90499401AB84214D8002FD6
:101CF00012D020680168490720D5C169C943090786
:101D00000CD4082707622046FFF718FF77600020F1
:101D10002876012005B0F0BD0320FBE7C069C04371
:101D200000050BD401202168C00208622046FFF79D
:101D300005FF2020706000202876EDE72068C1694B
:101D40000298884305D0002103988142C7D0002023
:101D5000E0E70121F8E700000FB410B503A9044B38
:101D6000044A029800F038F910BC08BC04B01847C7
:101D70001D270008140000200FB410B504A9074B5C
:101D800002AA039800F028F9044602A9002000F0F6
:101D9000BFFC204610BC08BC04B01847112700083F
:101DA0002021020C01D010211046020A01D0104659
:101DB0000839020901D01046091F820801D01046D7
:101DC000891E420801D0881E7047081A7047F8B56E
:101DD000040C8BB2264682B25E430D0C1046370CC3
:101DE0005843360480190021794116466E43370C5A
:101DF00036048019794126466E438919F8BD0000E2
:101E00008307FF22DB0E9A408907090E99400028BC
:101E100008DB830809489B001B1818689043084397
:101E2000186070470007000F0838830804489B00BB
:101E30001B18D86990430843D861704700E400E05C
:101E400000ED00E002E008C8121F08C1002AFAD124
:101E500070477047002001E001C1121F002AFBD12A
:101E600070470000F0B51FB486B00998089A030DBA
:101E70000021024314D05148514A18185043051408
:101E80001198012810981AD0281A401C00264D4F8E
:101E90004D49009601910490002812DA444211E065
:101EA0001198012449A3012801D11098C143069833
:101EB000119A84600360C26041600BB0F0BD404283
:101EC000E4E70446210500203F4A001C51410391EC
:101ED000029012E0E00707D032463B460199009895
:101EE000FEF72CFA0191009032463B461046194607
:101EF000FEF724FA06460F466410002CEAD1049837
:101F0000039B0028029A0999089806DAFEF716FA48
:101F1000019B009AFEF712FA05E0FEF777FA019BA3
:101F2000009AFEF773FA04460E460022284BFEF78D
:101F300005FB03D80020C043014607E00022254BE3
:101F400020463146FEF748F9FEF7D8FA102409E09A
:101F5000002C0ADB0A220023FEF7DAF8079B303256
:101F60001A55641E02460A43F2D11122641C079BD3
:101F7000121B1C19119B012B03D0012308430ED106
:101F80000AE0084304D0112010900020119077E758
:101F90001098151A6D1E0BE01098824202DD002386
:101FA0006D1C03E0824201DA00236D1E002BEED08F
:101FB000069811998260C16030C07EE701FCFFFF86
:101FC000104D0000000014400000F03F3000000001
:101FD0000000F0430000E03FFFB597B00646002543
:101FE00018E2252877D100242746FD49049400E013
:101FF0000443761C32780120203A90400842F7D101
:1020000030782A280ED0022230780146303909294A
:1020100016D804990A235943303940181443761CC2
:102020000490F1E7189802C804911890002904DA86
:102030000120400304434842049002200443761CDC
:1020400030782E2814D1042004437078761C2A2876
:1020500009D11898761C80C8189009E00A214F43CE
:10206000303FC719761C3078014630390929F5D937
:1020700030786C2810D006DC4C281AD068280ED096
:102080006A2817D104E0742813D07A2812D110E0FE
:102090000120400504430CE00121090501E0032172
:1020A00009050C437178814203D1012000052418F1
:1020B000761C761C3078119066280BD013DC5828DB
:1020C0007DD009DC00287BD04528F6D04628F4D006
:1020D00047281AD1A5E118E0632835D0642870D0CC
:1020E000652812D19DE170286CD008DC6728F1D0FA
:1020F00069287BD06E280DD06F2806D1BAE07328EE
:102100002ED0752871D0782859D01A9A19999047ED
:102110006D1C7EE16002400F022809D003280DD01B
:102120000428189801680DD00D60001D189070E10A
:102130001898EA1701680D604A60F6E71898016878
:102140000D80F2E70D70F0E718986A460178117279
:10215000001D18900020507202A80090012005E098
:10216000189802C8189000200091C04361070DD54F
:10217000002101E00199491C0191B94212DA814222
:10218000F8DB009A515C0029F4D10BE0002101E05A
:102190000199491C01918142FADB019A0099895CFD
:1021A0000029F5D1019904981A9B471A214638460F
:1021B000199A00F097FA0199401945180BE04FE081
:1021C0002CE113E04EE0009800990078491C009142
:1021D0001A9A199990470198401E0190401CF2D11B
:1021E000214638461A9B199A10E137E00A2000214F
:1021F000009001916002410F022907D0189A01CA8C
:102200001892C2179446032908D00AE01898C01DF6
:10221000C108C90005C91891944607E000B2C21769
:102220009446042902D140B2C1178C46002261466F
:10223000944506DA0A460021404291418C462D2100
:1022400002E0210504D52B216A461173012103E028
:10225000E10701D02021F7E7029155E00A200AE0CA
:10226000102008E010200090002104200443019178
:10227000082703E008200021019100906002410F2F
:10228000022907D0189A01CA1892002294460329FD
:1022900008D008E01898C01DC108C90005C91891E8
:1022A000944603E080B2042900D1C0B2002102911B
:1022B000210729D51199702906D0009A1021019B78
:1022C0004A401A4305D00EE040216A4611730121AD
:1022D00008E06146014306D030216A461173119926
:1022E000517302210291009A0821019B4A401A432E
:1022F0000AD16146014301D1610705D530216A4603
:10230000117301217F1E02911199582904D035A122
:102310000E910DA90D910DE037A1F9E76146019BE2
:10232000009AFDF7F5FE0E9B8C469B5C0D9A521EA3
:102330000D92137061460143F0D10D9805A9081A5A
:1023400020300190600703D501200004844300E0A1
:1023500001270198874201DD381A00E00020019929
:1023600000904118029809180498401A0490E0035C
:1023700006D421461A9B199A049800F0B3F945191E
:10238000002706E003A81A9AC05D199990476D1CB2
:102390007F1C02988742F5DBE0030CD521461A9B8F
:1023A000199A049800F09EF9451904E01A9A302011
:1023B000199990476D1C0099481E00900029F5DC82
:1023C00008E00D980D990078491C0D911A9A1999F9
:1023D00090476D1C0199481E01900029F1DC63E1D2
:1023E00009280100303132333435363738396162EB
:1023F00063646566000000003031323334353637AF
:1024000038394142434445460000000000F05AF983
:102410004519761C3078002800D0E2E528461BB02C
:10242000F0BD600700D406271898C01DC108C90078
:1024300048680A680831C30FDB071891190001D0FA
:102440009CA108E0210501D59BA104E0E10701D092
:102450009AA100E09AA1430011985B0810916528A9
:102460000CD006DC452809D046281DD0472841D18C
:1024700041E0662818D067283CD13CE00021112FAC
:1024800001DB112000E0781C0191009008A911A83F
:10249000FFF7E8FC139905910021119A15927F1C12
:1024A00012980197009150E00120C007039001208D
:1024B000019008A9009711A8FFF7D4FC139A14996A
:1024C00005920022119B009212981593059A019291
:1024D000002901D0104602E0791C40180190381AFA
:1024E00001D5019804E04042401E0090781C019004
:1024F000C01B029043E0012F00DA01270021112FB9
:1025000001DD112000E038460191009008A911A8D2
:10251000FFF7A8FC13990591119A002112981592C2
:102520000091019721070CD40599B94201DB01996B
:1025300000E00191012904DD159A491E515C302902
:1025400006D0B84201DA011D05DA0121029115E039
:102550000199491EEDE7002805DC0099411800911A
:102560000199091A03E0019A411C914200DD019191
:102570000099401A401C02900120C00703902007D8
:1025800006D402990198814202DB0020C0430290E8
:1025900000206946C87707AF012103980337C907B0
:1025A000884224D0022011902B20129003980028FA
:1025B0000CDA404203902D20129007E00A21039884
:1025C000FDF790FD30317F1E039039701199481E40
:1025D00011900029F2DC03980028EFD1791E12989F
:1025E00008703078202108404530BF1E387006A89A
:1025F000C01BC01D039010980078002800D0012057
:10260000019941180298C0170918039809180498ED
:10261000401A401E0490E00306D421461A9B199AE2
:10262000049800F05FF8451910980078002803D04E
:102630001A9A199990476D1CE00324D521461A9BDC
:10264000199A049800F04EF845191CE000980028EB
:1026500007DB00990598884203DD1598405C1999BD
:1026600001E0199930201A9A904700986D1C401C7F
:1026700000900298401E0290002804D11A9A2E2041
:10268000199990476D1C0199481E01900029DDDCC5
:1026900005E038781A9A7F1C199990476D1C0399A8
:1026A000481E03900029F4DC21461A9B199A0498CD
:1026B000ACE600002D0000002B0000002000000010
:1026C00000000000F8B5044600251E4617468804A1
:1026D00004D405E039462020B0476D1C641EF9D5AE
:1026E0002846F8BDFFB50446002581B01E46C80344
:1026F00001D5302700E02027880404D505E03846BE
:102700000399B0476D1C641EF9D5284605B0F0BD8D
:102710000A68531C0B6010707047000013B5044B1F
:10272000012269460348FEF7DFFF00981CBD000048
:10273000FFFF0000AC000020B4B0FEF709FCFFF77B
:10274000F8F8FFF7B7F8FFF7A1F8FFF72FF8FFF752
:10275000CDF807220F491048FEF70AFA0D4C0F4D2D
:1027600000260D48FEF7D6F928780028FCD02E70F8
:10277000E188A088019100906388228808A102A8BE
:10278000FFF7FAFA02A8FFF7E7FAC820FEF7EEFA19
:10279000E7E70000180000202800002000000020CB
:1027A0004348313D2564202020204348323D2564A4
:1027B000202020204348333D25642020202043480A
:1027C000343D25640D0A00000203040506070809CC
:1027D0000A0B0C0D0E0F101001020304050607086A
:1027E000090A0B0C0D0E0F10000000000000000085
:1027F00001020304060708090000000001020304A7
:10280000202800080000002018000000441E0008D6
:10281000382800081800002020050000541E000879
:1028200000000000010000000400000000000000A3
:0828300000127A000000000014
:04000005080000B53A
:00000001FF
