:020000040800F2
:1000000048050020C9000008C11400085913000861
:1000100000000000000000000000000000000000E0
:10002000000000000000000000000000C5140008EF
:100030000000000000000000C3140008C7140008FE
:10004000DB00000800000000DB000008DB00000807
:10005000DB000008DB000008DB000008DB00000814
:10006000000000001D030008DB000008DB000008A2
:10007000DB000008DB000008DB00000800000000D7
:10008000DB000008DB00000800000000DB000008C7
:10009000DB000008DB000008DB000008DB000008D4
:1000A000DB000008DB000008DB000008DB000008C4
:1000B000DB0000080348854600F08EF80048004742
:1000C000111B0008480500200448804704480047E9
:1000D000FEE7FEE7FEE7FEE7FEE7FEE74315000862
:1000E000B500000830B50B4601460020202201244F
:1000F00009E00D46D5409D4205D31D469540491B5C
:100100002546954040191546521E002DF1DC30BDA4
:10011000F0B51FB40646002082B005464024019188
:1001200000901BE0019922460F46304600F020F86F
:10013000049A059B801A994110D31046194622460D
:1001400000F039F8361A8F4101972246012000212C
:10015000009F00F030F838184D4100902046641E92
:100160000028DFDC019B00982946324607B0F0BD2D
:1001700010B5202A04DB0846203AD040002110BDEB
:100180000B46D340D0402024A21A91400843194680
:1001900010BDD2B201E00270401C491EFBD2704774
:1001A0000022F6E710B513460A4604461946FFF743
:1001B000F0FF204610BD10B5202A04DB0146203A8E
:1001C0009140002010BD914020239C1A0346E3403B
:1001D0001943904010BD0000064C0125064E05E075
:1001E000E36807CC2B430C3C98471034B442F7D358
:1001F000FFF764FFA81B0008C81B000810B50146E4
:10020000406A826B50231A420AD1816B012252024A
:10021000114381630168CA681205920F05D020E07E
:10022000006B026B0846904710BD827E002A18D1F1
:100230000A68120715D58A6853070122002B09DBCB
:100240004B680C24A3434B60816B13029943114309
:10025000816306E0816B202319438163C16B1143E5
:10026000C16300F013F910BD10B5406A816B4022E4
:1002700011438163C16B04221143C16300F010F983
:1002800010BD10B5406A00F009F910BDF8B504467C
:1002900000200090206881688907890F012905D115
:1002A0000168C90731D1C16809042ED48168184A90
:1002B00010261140012500291AD181682943816047
:1002C000154814490068FFF70DFF00E0401E00903C
:1002D0000028FBD100F006FC074611E000F002FC0C
:1002E000C01B02280CD920680068C043C00707D093
:1002F000A06B3043A063E06B2843E0630120F8BDAE
:1003000020680068C043C007E8D10020F8BD0000A5
:100310001700008040420F000C00002010B502487A
:1003200000F040FA10BD00007C00002010B504462B
:100330000068054940181421FFF7D4FE80002064AE
:100340000248E06310BD0000F8FFFDBF000002405E
:1003500030B5056C0124AC40C56B6C60046863600B
:100360004368102B036803D099600068C26030BDF9
:100370009A600068C16030BD72B6FEE7F8B500252E
:10038000044620340095227D012A39D001222275AD
:1003900003689E68760767D4384F4E68BE424DD0DA
:1003A0009E6A0F78BA4016439E620123C26A1B07F9
:1003B0009A421FD0012A1DD0022A1BD0032A19D02D
:1003C000042A17D0052A15D0062A13D0072A11D0DF
:1003D00002688B6856697607760FB3420AD0536974
:1003E000DB08DB005361006842690B7A5B075B0F37
:1003F0001A4342610A68102A04D0112A02D038E058
:100400000220F8BD1E488368102A07D001229205F9
:10041000134383600868102803D02AE00122D20524
:10042000F6E7194817490068FFF75CFE0A214843C0
:1004300000E0401E00900028FBD11AE0986A0E7878
:10044000B240904398620968102901D0112910D157
:100450000B488268102904D0012189058A438260F3
:1004600007E00121C905F9E7816B2022114381636F
:100470000125002020752846F8BD0000011000006D
:100480000027014040420F000C00002010B502215F
:10049000014800F019FB10BD0004004800BF704780
:1004A00070470000F8B500260446002805D0A06B70
:1004B00025462035002802D007E00120F8BD0020A5
:1004C000E0632875204600F0A9F8A06B1022C00652
:1004D000002870DB2068816849076CD4A16B130188
:1004E000994302231943A16381688907890F012970
:1004F00005D10168C9070FD1C16809040CD4C168CE
:1005000018239943A3681943C1602068016963688F
:1005100089008908194301612068C1683D4B194071
:10052000C160207E617E8003C9030843A17E4B0326
:100530001843A36A012B02D001231B0300E0002310
:100540001843E36818432369022B09D0002318439A
:100550002B79E57E5B0018430123012D02D00AE0D0
:100560000423F4E7002927D0A16B20252943A163A8
:10057000E16B1943E163E1690D46FF3DC23D02D0E5
:10058000256A294308432168CD680543CD600125CC
:10059000E16A2D07A94213D0012911D002290FD0F9
:1005A00003290DD004290BD0052909D0062907D02D
:1005B000072905D010E028E0012109040843DAE703
:1005C00021684D69ED08ED004D6121684D69A78DE9
:1005D0007F077F0F3D434D612168C9680E4D29405B
:1005E000814207D10020E063A06B80088000401C9E
:1005F000A06308E0A06B022188431043A063E06B76
:100600001843E06301263046F8BDA06B1043A06399
:10061000F8E700001902FEFFE7FF3F8370B586B0E0
:10062000054614216846FFF7BBFD1B492868884230
:1006300030D11A498A69401502438A618A690240A9
:1006400005924A69000202434A6149690026014055
:10065000059101200090032001900920694602962F
:10066000C00600F05FF90E480E4C41C480202660A1
:1006700060604000A0608000E06020206661206132
:100680000848083C00F0DCF8002801D0FFF774FEB1
:100690002C63656206B070BD00240140001002406A
:1006A000080002407C00002070B50446216800204C
:1006B0008968490721D425462035297D01291CD088
:1006C00001212975617E012904D02046FFF7DEFD56
:1006D000002811D1A16B0A4A1140FF2201321143B7
:1006E000A1630021E163297522681C211160216842
:1006F0008A6804231A438A6070BD022070BD00001E
:10070000FEF1FFFFF7B5044600680025806840074A
:100710003DD426462036307D01280AD00127377582
:10072000607E012807D02046FFF7B0FD050002D00B
:100730002EE00220FEBDA06B16490840FF210131CA
:100740000843A0630020E0633075216B1248886283
:10075000216B1248C862216B1148086321681C2074
:100760000860206841681022114341602068C16818
:100770003943C1602168206B4031029B019A00F02F
:1007800089F82068816804221143816000E0022515
:100790002846FEBDFEF1FFFFFD01000883020008B0
:1007A00069020008F0B4C16B0D6801680C6804228E
:1007B000066C1346B3402B420DD063070BD50B6874
:1007C0009B0602D40B6893430B60016C8A40C16B9B
:1007D0004A60C16A19E00227B74002462F40012350
:1007E0002032002F15D0A70713D50C68A40604D417
:1007F0000C680A25AC430C605370036C02219940CD
:10080000C36B596000211170816A002916D0F0BCB9
:1008100008470827B7402F4210D024070ED50C6890
:100820000E25AC430C60046C1946A140C46B61609A
:100830008363537000211170016BE6E7F0BC7047D1
:1008400070B5040021D002212046203005464170B9
:10085000226811680E48A368014060682669184341
:10086000E3683343184363691843A3691843E36992
:100870001843084310602046FFF758FD0021A1638C
:10088000012068702970084670BD012070BD00000D
:100890000FC0FFFFF8B504468C46203001780025D4
:1008A000012909D00126067041780027012905D0C9
:1008B000077002252846F8BD0220F8BD02214170CC
:1008C000A763206801684908490001606146204625
:1008D000FFF73EFDE06A00282068016802D00E2282
:1008E000114306E00A2211430160206801680422D6
:1008F000914301602068016831430160DAE700003C
:1009000070B5044600F0EEF80546601C02D00448BD
:100910000078241800F0E6F8401BA042FAD370BD1E
:1009200000000020F8B5002303240125BAE02E467C
:100930009E40B44632407CD00E79B607B60F012EE9
:1009400001D0022E17D186682746B6465E00B74012
:1009500000967646BE43B646CF68009EB7407646C0
:100960003743876046686746BE430F79FF06FF0F2F
:100970009F40374347600E79F643B6070ED0C668EE
:100980002746B4465E00B646B7406646BE43B44608
:100990008F687646B74066463743C7600E79B6071C
:1009A000B60F022E14D1DE08B60036180096366A4D
:1009B0005F07B446FE0E0F27B646B7406646BE43F5
:1009C000B4460F697646B74066463743009E3762A5
:1009D00006682746B4465E00B646B7406646BE4344
:1009E0000F79B446BF07BF0F7646B7406646374318
:1009F00007604E68B603B60F53D02D4FBE692E4325
:100A0000BE61BE699F08F607F60F2A4EBF00BE19E9
:100A10000096B6680F27B4469E07360FB646B74015
:100A20006646BE430927FF06B446B84202D10027F6
:100A300010E036E0204FB84201D101270AE01F4FF5
:100A4000B84201D1022705E01D4FB84201D103276A
:100A500000E005277646B74066463743009EB760FC
:100A6000184EB6684F689643FF0200D51643154FDF
:100A7000BE60FE684F689643BF0200D51643114F13
:100A8000FE607E684F689643BF0300D516430D4F46
:100A90007E603E684F689643FF0300D51643094ABF
:100AA00016605B1C0A681646DE4000D03FE7F8BDC2
:100AB0000010024000000140000400480008004807
:100AC000000C004800040140426913460B401B041F
:100AD00091430B4383617047002A01D081617047C5
:100AE0008162704701488068704700000000002064
:100AF00002488168027889188160704700000020F0
:100B000010B506480168102211430160032000F06F
:100B100007F800F027F8002010BD00000020024078
:100B200070B504460D4D7D202978C000FFF7DAFA34
:100B300001460B480068FFF7D5FA00F02DFB0028AE
:100B400009D1042C07D200222146401E00F02AF8C9
:100B500000206C6070BD012070BD0000000000200E
:100B60000C00002008B50848816901221143816109
:100B7000816911400091C26901040A43C261C069E0
:100B80000840009008BD000000100240002805DB6E
:100B9000C106C90E01208840014908607047000065
:100BA00000E100E010B500F0CBFE10BDF8B5054641
:100BB0000068354CC00352D5E0690026C00007D458
:100BC000E16920040143E161E169014001260091EE
:100BD0002E480168C90510D40168821511430160CF
:100BE000FFF780FF074604E0FFF77CFFC01B642887
:100BF00024D826480068C005F6D5206A03273F029E
:100C0000384020D06968394081421CD0206A226A6D
:100C1000B843012109040A432262226A8A432262FC
:100C20002062C0070FD0FFF75DFF009008E0FFF7DC
:100C300059FF0099411A1648814201D90320F8BD95
:100C4000206A8007F3D5206A6968B84308432062A8
:100C5000002E04D0E169012000078143E16128787A
:100C6000C00705D0206BA968800880000843206376
:100C70002878800605D5206B10218843E968084351
:100C800020630020F8BD000000100240007000400A
:100C900088130000F8B50F46060059D03A4D286871
:100CA000C007C00FB84209D2286840084000384346
:100CB00028602868C007C00FB84249D13068334C5B
:100CC00081070CD5400704D5606807210902084355
:100CD00060606068F0218843B168084360603078E4
:100CE000C00726D0706801280ED0216802280ED0D7
:100CF000890700292CDA616889088900014361604D
:100D0000FFF7F0FE00900DE021688903F1E789010B
:100D1000EFE7FFF7E7FE0099411A1D48814201D92C
:100D20000320F8BD60680C21084071688900884282
:100D3000EFD12868C007C00FB8420BD92868400817
:100D40004000384328602868C007C00FB84201D06F
:100D50000120F8BD3078400706D5606807210902F8
:100D60008843F1680843606000F028F86168094A28
:100D70000906090F515CC840074908600320FFF7C6
:100D8000CFFE0020F8BD000000200240001002400D
:100D900088130000901B00080C000020044805493F
:100DA00000684968044A4905490F515CC8407047CA
:100DB0000C00002000100240A01B000810B5104AD3
:100DC00051680C200B4603400E48042B17D0082B0B
:100DD00015D18B020C4C1B0FE45CD26A0A4B120734
:100DE000120F10339A5CC90305D500231946FFF78B
:100DF0008FF9214601E02046044900F089FD10BD2D
:100E00000010024000127A00701B000800093D002B
:100E1000FEB5040070D02078DC4DC0074AD0686869
:100E20000007800F012807D068680007800F02289C
:100E300009D16868C00306D5286880033AD5606880
:100E40000028E7D036E06168012914D00120800431
:100E5000002901D0052914D02A68012109048A43F8
:100E60002A602968814329606068002816D0FFF74E
:100E700039FE06460EE0286801210904084328606F
:100E8000F2E7296801432960F5E7FFF72BFE801B95
:100E900064286ED828688003F7D50BE0FFF722FEA0
:100EA000064604E0FFF71EFE801B6428F1D8286880
:100EB0008003F7D420780126800700283CDA686890
:100EC0000007800F07D068680007800F022809D14B
:100ED0006868C00306D42868800716D5E068012832
:100EE0000AD112E0E0680028286816D03043286054
:100EF000FFF7F8FD074605E043E1FFF7F3FDC01BF0
:100F00000228C6D828688007F7D52868F8218843C2
:100F10002169C900084328600EE0400840002860AD
:100F2000FFF7E0FD074604E0FFF7DCFDC01B0228E9
:100F3000AFD828688007F7D42078000722D5E06969
:100F40000028686A0ED030436862FFF7CBFD074681
:100F500004E0FFF7C7FDC01B02289AD8686A800723
:100F6000F7D50FE0400840006862FFF7BBFD074679
:100F700005E09DE0FFF7B6FDC01B022889D8686A2E
:100F80008007F7D4207804274007002860DA002083
:100F90000190E869C00008D4E969B8060143E96135
:100FA000E969014001200091019079480168C90573
:100FB00011D40168821511430160FFF793FD009081
:100FC00005E0FFF78FFD0099401A642870D870483B
:100FD0000068C005F5D5A06801280AD0002801D016
:100FE000052810D0286A400840002862286AB843C3
:100FF00001E0286A30432862A068002812D0FFF779
:1010000071FD00900AE0286A38432862F1E7FFF793
:1010100069FD0099411A5F48814249D8286A8007D2
:10102000F5D50DE0FFF75EFD009006E0FFF75AFDF5
:101030000099411A574881423AD8286A8007F5D466
:101040000198002804D0E969012000078143E96183
:101050002078C00635D5606901280CD0401D686B2A
:1010600023D038436863686B400840006863FFF72B
:1010700039FD064622E0686B38436863686B30438D
:101080006863FFF72FFD064604E0FFF72BFD801B8A
:1010900002285BD8686B8007F7D5686BF821884316
:1010A000A169C900084368630BE0B8436863F4E7CB
:1010B0004CE0FFF717FD801B022847D8686B8007BC
:1010C000F7D4206A00285ED069680907890F0229D1
:1010D00042D0012636060228286805D0B043286091
:1010E000FFF700FD044633E0B0432860FFF7FAFC49
:1010F000074604E0FFF7F6FCC01B022826D8286844
:101100008001F7D4E86AE16A000900010843E86257
:10111000616AA06A084369683D221204914308434A
:101120006860286830432860FFF7DCFC044604E070
:10113000FFF7D8FC001B022808D828688001F7D5E3
:1011400021E0FFF7CFFC001B022801D90320FEBDE0
:1011500028688001F5D416E00128F8D06868E96AAB
:1011600001221204636A02409A420AD10907E26A24
:10117000090F914205D10F2189040840A16A8842D4
:1011800001D00120FEBD0020FEBD00000010024085
:101190000070004088130000094910B5401E8842C5
:1011A00001D9012010BD074C60610321081F00F028
:1011B000C7FB0020A06107202061002010BD0000B7
:1011C000FFFFFF0000E000E010B5040003D0E06F77
:1011D000002802D007E0012010BD00217820015531
:1011E000204600F027F82420E067206801684908BD
:1011F00049000160204600F09DFA0128ECD0606AA9
:10120000002802D0204600F09DF9206841680122A4
:10121000D202914341602068816808229143816035
:1012200020680168012211430160204600F0F0F9B6
:1012300010BD000010B586B0044614216846FEF7C4
:10124000AFFF1349206888421FD1124882690121EB
:1012500089030A43826182690A4005924269C90092
:101260000A43426140690840059003204002009013
:10127000022001900020029003200390012004909E
:1012800009206946C006FFF74DFB06B010BD0000FF
:101290000038014000100240FFB50446C06F83B023
:1012A00017460D46202802D0022007B0F0BD002DC1
:1012B0000BD0002F09D00120A1680003814206D184
:1012C0002069002803D1E80701D00120EDE70021C3
:1012D000842001512120E067FFF704FC26464036B8
:1012E0000190378277820120A1680003814202D1F8
:1012F0002069002802D02F46002511E000270FE0CA
:1013000000228021204600F0ADFA002815D1002FE0
:1013100017D02168387808857F1C708A401E70823B
:10132000708A019B002806980090E9D10022402194
:10133000204600F097FA00280AD02020E06703201A
:10134000B3E728882168C005C00D0885AD1CE4E717
:101350002020E0670020A8E7FEE700003EB500245B
:10136000184800940194164902940160846049056C
:10137000C460416004224261012101610476447627
:101380008476C476FF22C2320462C26102462032F1
:1013900011718162FFF786F8002801D0FEF7ECFF9B
:1013A0000120000301900220029000946946054844
:1013B000FEF7E4FF002801D0FEF7DEFF3EBD00008F
:1013C000002401403C00002008B508484169012282
:1013D00011434161406910400022009011460920EC
:1013E000FFF7E0FB0920FFF7D1FB08BD001002402A
:1013F000F0B587B014216846FEF7D2FE1F48426957
:101400000121C9040A43426142690A4005924269C6
:10141000C9000A43426142690A4005924269491182
:101420000A43426142690A400592426949000A43FF
:1014300042614069124E08404C110590012221463C
:101440003046FFF749FB0F4F002202213846FFF7D5
:1014500043FB00940024012501950294694630461F
:101460000394FFF75FFA0220009002946946019509
:1014700003943846FFF756FA07B0F0BD001002405B
:10148000000800480004004810B50C480A490160F3
:10149000E1214902416000218160C16001618161F7
:1014A000C1610C22016242614162FFF78DFE00289A
:1014B00001D0FEF761FF10BD00380140C0000020E0
:1014C000FEE77047704710B5FFF712FB10BD70B50F
:1014D00094B030216846FEF763FE00240E94139406
:1014E00010200994022504900D940F940520129465
:1014F00001260095C0040C94109403960A90119450
:1015000008950B946846FFF783FC002801D072B65B
:10151000FEE707200C900E9401210D950F940CA866
:10152000FFF7B8FB002801D072B6FEE710A81096AE
:101530001294FFF73BFB002801D072B6FEE714B00F
:1015400070BD704710B5818CC90707D001684A6823
:1015500001235B049A43836A1A434A60818C89079A
:1015600007D501684A6801231B049A43C36A1A43DA
:101570004A60818C490707D501684A6801239B04AA
:101580009A43036B1A434A60818C090707D50168A7
:101590004A680123DB039A43436B1A434A60818CF8
:1015A000C90607D50268916801231B039943836B21
:1015B00019439160818C890607D501688A680123E7
:1015C0005B039A43C36B1A438A60818C490612D528
:1015D00003685A6801210905046C8A4322435A6052
:1015E000026C8A4207D10268516803235B05994364
:1015F000436C19435160818C090607D501684A681C
:101600000123DB04806C9A4302434A6010BD000052
:10161000FEB507460025803704467D60FFF762FA75
:10162000019020680068264600076036002819DA15
:10163000274800900121002249052046019B00F027
:1016400011F900280ED0EFF31080012181F31088EA
:1016500021680A6880239A430A6080F3108820205A
:10166000E06729E020680068400728D51848009006
:101670000121002289052046019B00F0F3F8002893
:101680001DD0EFF31080012181F3108821680A68D2
:10169000FF2321339A430A6080F31088EFF3108010
:1016A000012181F3108821688A68520852008A60FB
:1016B00080F310882020386035760320FEBD20207E
:1016C000E06738602566656635760020FEBD00005F
:1016D000FFFFFF0110B5EFF31081012282F31088A4
:1016E00002681368FF242134A343136081F3108838
:1016F000EFF31081012282F31088026893685B087F
:101700005B00936081F31088016E01290BD1EFF328
:101710001081012282F31088026813681024A34309
:10172000136081F31088202280210A500021016675
:10173000816610BD70B5044680682169E26908437E
:101740006169002511432268084311683F4B194025
:101750000143116021684868032212039043E26844
:1017600010434860A169206A084321688A680B23F6
:101770001B029A4302438A6035492068884210D18F
:101780003448006B8007800F0ED0012805D0022856
:1017900005D003280AD1022109E0042107E008212D
:1017A00005E02D49884201D1002100E010210120EF
:1017B000E369C003294A2A4E834222D1002906D078
:1017C000022907D0042907D0082935D108E0FFF7FE
:1017D000E5FA03E0104603E0FFF7F0FA002830D006
:1017E000616840004A088018FEF77CFC0146103909
:1017F000B14221D81A49491C01400007400F084353
:101800001DE0002906D0022907D0042907D00829A5
:1018100012D108E0FFF7C2FA03E0104603E0FFF739
:10182000CDFA00280DD061684A081018FEF75AFC5E
:1018300001461039B14201D9012502E080B2216888
:10184000C8600020A066E066284670BDF369FFFF0F
:1018500000380140001002400044004000127A00AD
:10186000EFFF0000FFB5064681B08036054604460E
:1018700060350A9F2EE0781C2CD0FFF733F90499CD
:10188000401AB84214D8002F12D0206801684907C6
:1018900020D5C169C94309070CD40827076220462F
:1018A000FFF718FF776000202876012005B0F0BD13
:1018B0000320FBE7C069C04300050BD40120216869
:1018C000C00208622046FFF705FF2020706000205C
:1018D0002876EDE72068C1690298884305D0002189
:1018E00003988142C7D00020E0E70121F8E700001B
:1018F0000FB410B503A9044B044A029800F052F843
:1019000010BC08BC04B01847F51A000810000020ED
:10191000F8B5040C8BB2264682B25E430D0C10461D
:10192000370C5843360480190021794116466E431E
:10193000370C36048019794126466E438919F8BD63
:101940008307FF22DB0E9A408907090E9940002881
:1019500008DB830809489B001B181868904308435C
:10196000186070470007000F0838830804489B0080
:101970001B18D86990430843D861704700E400E021
:1019800000ED00E002E008C8121F08C1002AFAD1E9
:1019900070477047002001E001C1121F002AFBD1EF
:1019A00070470000FFB58DB00446002506E02528ED
:1019B0000AD0109A0F999047641C6D1C207800285B
:1019C000F5D1284611B0F0BD00270121484A009703
:1019D00000E00743641C23780846203B98401042EF
:1019E000F7D120782E2817D1042007436078641C93
:1019F0002A280CD10E98641C02C800910E900BE0AE
:101A000000990A22514330394018641C0090207814
:101A1000014630390929F3D920780028D1D064282B
:101A200008D0692806D075281ED0109A0F999047C3
:101A30006D1C5BE00A200E99019001C90E910028EF
:101A400002DA40422D2102E0390504D52B216A46F5
:101A50001172012103E0F90704D02021F7E70BAE52
:101A60000B910DE00021FAE70A200E99019001C9BF
:101A70000E91F7E70199FEF735FB3031761E317094
:101A80000028F7D103A8801B20300190780701D5EA
:101A9000009801E0012000900199884201DD401A80
:101AA00000E000200027009006E002A8109AC05D28
:101AB0000F9990476D1C7F1C0B988742F5DB04E063
:101AC000109A30200F9990476D1C0099481E009085
:101AD0000029F5DC05E03078109A761C0F999047C4
:101AE0006D1C0199481E01900029F4DC641C65E717
:101AF0000928010013B5044B012269460348FFF78A
:101B0000CBFB00981CBD0000FFFF0000C0000020C0
:101B1000FEF7F6FFFFF7DBFCFFF76AFCFFF754FC6C
:101B2000FFF7B2FCFFF71AFC14220C490C48FEF731
:101B3000E9FD0A4D0A48FEF7B7FD00246000295A66
:101B400008A0FFF7D5FE641CA4B2142CF6D307A09E
:101B5000FFF7CEFE3220FEF7D3FEEBE714000020A5
:101B60003C00002025642020000000000D0A000039
:101B700002030405060708090A0B0C0D0E0F1010CE
:101B80000102030405060708090A0B0C0D0E0F10CD
:101B9000000000000000000001020304060708091D
:101BA0000000000001020304C81B00080000002020
:101BB0001400000084190008DC1B00081400002039
:101BC0003405000094190008010000000400000022
:0C1BD0000000000000127A00000000007D
:04000005080000B53A
:00000001FF
