:020000040800F2
:1000000098040020C9000008150F0008E90D000839
:1000100000000000000000000000000000000000E0
:10002000000000000000000000000000BF0F0008FA
:100030000000000000000000170F0008C10F0008BA
:10004000DB00000800000000DB000008DB00000807
:10005000DB000008DB000008DB000008DB00000814
:1000600000000000DB000008DB000008DB000008E7
:10007000DB000008DB000008DB00000800000000D7
:10008000DB000008DB00000800000000DB000008C7
:10009000DB000008DB000008DB000008DB000008D4
:1000A000DB000008DB000008DB000008DB000008C4
:1000B000DB0000080348854600F03CF80048004794
:1000C000991000089804002004488047044800471D
:1000D000FEE7FEE7FEE7FEE7FEE7FEE75510000855
:1000E000B500000830B50B4601460020202201244F
:1000F00009E00D46D5409D4205D31D469540491B5C
:100100002546954040191546521E002DF1DC30BDA4
:10011000D2B201E00270401C491EFBD2704700229F
:10012000F6E710B513460A4604461946FFF7F0FFF6
:10013000204610BD064C0125064E05E0E36807CCBD
:100140002B430C3C98471034B442F7D3FFF7B6FF6B
:10015000DC100008FC100008EFF3108072B6FEE718
:10016000F0B588B007466048874201D0052000E01E
:10017000032000900022069214460597ACE001256A
:100180000295A5402E40002E00D1A0E004940392D9
:100190004A68032314461C40601E01281AD8032312
:1001A0000192069A9340B8689843CF6897400743F6
:1001B000059887600198C006C00F049A9040059F7B
:1001C0007F68AF43074305984760059FD8435500B4
:1001D000019A08E01846069DA840C043032C02D1AE
:1001E000069D1C461CE0FB6803408F68AF401F4320
:1001F000059BDF60059F022C12D11C22039B1A4035
:100200000F239340049CE408A4003C19276A9F43F1
:100210000B6993403B43059F23624A6803241440C3
:10022000AC403B68034023433B609003800F039A3C
:10023000049C4CD05D4803460068029D284318602A
:1002400018682840079023460C2414400F20A04033
:1002500003229343079A264A15469A5882435B190C
:100260000920C006874208D02248874207D022488A
:100270008742009804D1022002E0002000E00298AA
:10028000A04010431860194880684B68DA0201D515
:10029000304300E0B043049C144A9060D0689A0256
:1002A00001D5304300E0B043104AD06050689A0353
:1002B00001D5304300E0B0430C4A50601068DA03C7
:1002C00001D5304300E0B043039A084B1860121D7B
:1002D0000698801C0690641C0E683046E04000D0F2
:1002E0004DE708B0F0BDC046000C004800040140D6
:1002F000080001400004004800080048002A01D01E
:10030000182200E02822815070470000054800684C
:100310007047C0461A48007802490A6810180860F9
:100320007047C0469400002080B5A44801681022A0
:100330000A430260032000F005F800F023F80020D3
:1003400080BDC04670B504467D20C0000C4E31789B
:10035000FFF7C8FE01469C480068FFF7C3FE00F0A7
:1003600029FD0125032C08D8002806D10025E843E3
:1003700021462A4600F01CF87460284670BDC0462D
:100380000000002082B00948016801221143016089
:100390000168114001910199110742680A434260C6
:1003A000406808400090009802B070471810024062
:1003B00080B500F051FE80BDF0B585B00446807870
:1003C000C0073A4B5CD0012211071868C0000191A8
:1003D000029202D50020039007E0186808431860D5
:1003E00018680840049004980392314E3068C005A4
:1003F00011D402980702306838433060FFF786FF57
:1004000005463068384206D1FFF780FF401B64285C
:10041000F7D9032546E003252802244B59680140FB
:10042000002920D06268024091421CD0029800044A
:1004300059685A6802435A605A6882435A600846AB
:100440001C4A10405860C8070DD0FFF75FFF0646F2
:100450005B4F164B5868800705D4FFF757FF801B8A
:10046000B842F6D91EE05868124908406168014355
:1004700059600398002803D01868019988431860D0
:100480002068C10705D0596903229143A2680A4335
:100490005A610025800605D5586910218843E16816
:1004A00001435961284605B0F0BDC0461C1002400A
:1004B00000700040FFFCFFFFF8B500282ED0044676
:1004C0003E4B1A68012002408A4208D21A6801266F
:1004D000B2430A431A601A6832408A426BD10091D3
:1004E00021688A0710D54A0706D507221202454B14
:1004F0001D461B6813432B60424A15461268F023C1
:100500009A43A36813432B60C9072AD061683D4A08
:10051000121F012904D11268920307E001264AE064
:100520001268022901D1920100E09207064642D5E5
:100530003448024600680326B04308431060FFF7C2
:10054000E5FE07461E4D2F4800680C2101406068FB
:100550008000814205D0FFF7D9FEC01BA842F2D926
:1005600029E0164A1068012630400099884207D9D0
:100570001068B043084310601068304088421AD1B8
:100580002078400708D5072000021E490A4609685E
:100590008143E0680843106000F018F819490968C1
:1005A0000906090F074A515CC84007490860032043
:1005B000FFF7C8FE0026304601B0F0BD0020024023
:1005C00088130000CC1000080800002010B50D4969
:1005D0000A680C2313400C48082B08D193021B0F08
:1005E0000AA4E45C896AD20303D4104807E00446F5
:1005F00006E00F22114009A2515CFFF773FD44434E
:10060000204610BD0410024000127A0002030405C7
:10061000060708090A0B0C0D0E0F10100102030447
:1006200005060708090A0B0C0D0E0F1000093D0006
:10063000F0B587B007460120002F00D1DDE104901E
:100640003878C007EE4E059753D071680C200140F2
:10065000042906D071680140082909D17068C003D7
:1006600006D53068800344D57868002841D16FE012
:100670007968002904D001291AD1012001041FE062
:100680000120010432688A433260810432688A435F
:1006900032604404FFF73AFE0546059F3068204269
:1006A00027D0FFF733FE411B03206429F6D9A4E1CC
:1006B0003068052907D101218A04104330600904FC
:1006C0003068084306E001210A0490433060890441
:1006D00030688843306001204404FFF717FE054668
:1006E0003068204205D1FFF711FE401B6428F7D97E
:1006F00056E13878800744D570680007800F1BD01A
:1007000070680C210140082902D17068C00313D51C
:10071000059CE168306800291CD001210843306045
:10072000FFF7F4FD05463068800723D4FFF7EEFDA0
:10073000401B0228F7D933E130688007059A02D5BB
:10074000D068012804D13068F8218843116915E088
:10075000049852E1012188433060FFF7D7FD054638
:10076000306880070DD5FFF7D1FD411B032002291A
:10077000F6D942E13068F82188432169C900014374
:100780003160059C2078000721D5E169706A002955
:100790000ED0012108437062FFF7B8FD0546706A6C
:1007A000800714D4FFF7B2FD401B0228F7D9F7E009
:1007B000012188437062FFF7A9FD0546706A800732
:1007C00005D5FFF7A3FD401B0228F7D9E8E0207804
:1007D00040071BD42078C0067AD5059A51690129B3
:1007E0004ED1706B042101437163706B0121014391
:1007F0007163FFF78BFD0546706B800760D4FFF7D0
:1008000085FD411B03200229F6D9F6E001221107DC
:10081000F069C0000191039202D50020029007E028
:10082000F0690843F061F06908400690069802926A
:10083000744F3868C00511D4039804023868204307
:100840003860FFF763FD05463868204206D1FFF7A0
:100850005DFD411B03206429F6D9CEE0059881682F
:10086000694F002917D00129039A06D0306A05295B
:1008700000D084E0042108433062306A104383E0F2
:10088000706B491D67D1042188437063706BF82138
:100890008843916919E0306A039988433062306A6D
:1008A000042188433062FFF731FD0546306A800736
:1008B00078D5FFF72BFD411B0320B942F6D99CE008
:1008C000706BF821884305998969C90001437163F8
:1008D0000598046A002C00D18EE070680C2101405C
:1008E000082917D1012C049800D186E001200304C7
:1008F00071680B40F26A059D6C6AA3427DD10F239B
:100900001A40EC6AA24278D19A041140AA6A914234
:1009100072D072E001200206316804929143316086
:100920004706FFF7F3FC0546022C0AD1049C306809
:10093000384241D0FFF7EAFC411B03200229F6D9D7
:100940005BE03068384257D0FFF7E0FC411B0320E2
:100950000229F6D951E0042108437063706B01212C
:1009600088437063FFF7D2FC0546706B8007AFD5F4
:10097000FFF7CCFC411B03200229F6D93DE0904350
:100980003062306A042188433062FFF7BFFC0546BD
:10099000306A800706D4FFF7B9FC401BB842F7D98C
:1009A00003202AE002980028059C00D112E7F06994
:1009B00001998843F0610DE7F06A0F218843059A99
:1009C000D16A0143F1623D20000471688143906A5D
:1009D0000843516A01437160306820433060FFF77B
:1009E00095FC04463068384206D1FFF78FFC011BA6
:1009F00003200229F6D900E0002007B0F0BDC04670
:100A000000100240007000408813000010B500285C
:100A100034D00446407F002804D1002020772046AF
:100A200000F040F8022060772068C168C90633D41E
:100A3000CA21416253214162204600F083FA002816
:100A400018D120688168164A0A408260616822696C
:100A50000A436169114382680A438260E168016167
:100A6000A168090402690A430261204600F092FA73
:100A7000002805D02168FF224A6210BD012010BD68
:100A80000120800421680A6C82430A64A0690A6C10
:100A900002430A64FF20486201206077002010BDF5
:100AA000BFFF8FFF00680549884200D070470120D2
:100AB000C00303490A6802430A60704700280040E7
:100AC00020100240F8B50446007F012801D1022021
:100AD00041E00D460220607701212177002A009134
:100AE00006D0E8780004697809020F18AE7813E0A0
:100AF0006E78F00603D5EF2006400A366E70E8786F
:100B0000484FB84739460704F0B20E4688470002FE
:100B1000C719A878B04706462D782068CA214162D7
:100B200053214162204600F00DFA00280ED13743D0
:100B3000C02087436803384321684860204600F09E
:100B400029FA002802D10098607700202168FF224E
:100B50004A620021217701B0F0BDC046FEB50446CF
:100B6000007F012801D102205AE00D460220607763
:100B70000120029020772768B96840200840002AA9
:100B800005D0002809D0E8788005009008E000280A
:100B90000DD0E878800500900CE000200090E8700F
:100BA00028780004697809020E18A8780EE0002061
:100BB0000090E87028781B4988470604687819492E
:100BC000884700028619A878164988470190CA20EC
:100BD000786253207862204600F0B4F900281AD1D8
:100BE00001980643009806430F483040216808608A
:100BF000029880048A6882438A60E8682A6902430E
:100C0000886810438860204600F0C4F9002802D1AB
:100C10000298607700202168FF224A620021217734
:100C200003B0F0BD190F00087F7F7F0070B5044648
:100C300000680949C160FFF769FB0546D44E20688A
:100C4000C068800606D4FFF761FB401BB042F6D3B4
:100C5000032070BD002070BD59790100F0B585B04A
:100C600000280AD0044641208700606A002806D088
:100C7000002020612046143006E0012069E0606811
:100C8000B84203D020461C30002101600025A56237
:100C90005D20205C26465D36002805D15C200021C1
:100CA0002154204600F058F802230496337020683F
:100CB0000168402291430390016007210A020F213D
:100CC0000802E1689142029004D900220192814217
:100CD00005D105E0012630030190914200D0A562C4
:100CE0006268A6683A4028462125AD023540AA1818
:100CF00025691D401543666901231E402E43FC37BC
:100D0000A26917403743E56938262E403E43256ADD
:100D100080272F4037435D03A66A2E403E43039F42
:100D20003E60029D2940019D2943120C0425154077
:100D30000D43616A10220A402A43616B08250D4069
:100D400015437D60D902FA698A43FA6120660499E5
:100D50000B7005B0F0BD000010B586B0044601A8C8
:100D60001421FFF7DCF92068694988421FD101206E
:100D70000103364A53680B43536053680B4000939A
:100D8000009940041168014311601168014000910D
:100D90000098002005900321049103900220029006
:100DA000F02001900920C00601A9FFF7D9F906B08B
:100DB00010BDC046401E010E01D0012070470749FA
:100DC000074A5060074803680B40032189075918F8
:100DD000016000209060072111607047FFFFFF0055
:100DE00010E000E020ED00E0FEE70000F0B587B085
:100DF000002406940127F904144802680A4302609B
:100E000002680A4001920199B90502680A4302602A
:100E100002680A4001920199790402680A4302605B
:100E200000680840019001987D03094E304629462C
:100E30002246FFF763FA059404940397029502A9EA
:100E40003046FFF78DF907B0F0BDC04614100240E0
:100E50000008004810B586B001A81421FFF75FF91B
:100E600016480024FF217F22154B18C00260416004
:100E70008460C460046100940838FFF7C7FD00284F
:100E800001D0FFF769F901A98C700C8005940494D6
:100E90000A480122FFF762FE002801D0FFF75CF943
:100EA00008480090054869460122FFF70BFE00281C
:100EB00001D0FFF751F906B010BDC0461000002068
:100EC000002800400101010070B5104808220021EF
:100ED0000723016241628162C3620163426310229F
:100EE0000B4B0124A40403252D024126B60048C063
:100EF000016045608160C160046142610838FFF7AC
:100F0000ADFE002801D0FFF727F970BD30000020AA
:100F100000300140FEE7704770B50446092800D351
:100F20000920C04306190A36F0B20A252946FFF700
:100F3000D9F84543711B891B091900010843C0B248
:100F400070BD0000F8B504460068C16849061AD4AF
:100F5000C16880220A43C2600026FFF7D7F9054620
:100F60000B4F0BE04021084000280DD1FFF7CEF9D0
:100F7000401BB84202D30420607701262068C06875
:100F8000012EEFD100E00026F0B201B0F0BDC04666
:100F9000E9030000B0B504460068C16880229143AF
:100FA000C16080680025800607D42046FFF73EFE1A
:100FB000002802D00420607701252846B0BD704784
:100FC00080B5FFF7A7F980BD70B594B008AC201DBF
:100FD0001821FFF7A4F800250795069505950495B7
:100FE000039502950195009513950520C004129074
:100FF00011950226109601200F9010210C910B9054
:101000000A2008902046FFF713FB002803D0EFF3D7
:10101000108072B6FEE707950695059607200490A6
:1010200004A801242146FFF747FA002803D0EFF374
:10103000108072B6FEE760020190200400906846BE
:10104000FFF7BAF9002803D0EFF3108072B6FEE77D
:1010500014B070BD70470000002805DB0322034672
:1010600093430C4A9A1806E00F220240083A0323E1
:101070009A43074BD2188007C00E8901C9B281403C
:10108000FF23834010689843084310607047C046B0
:101090001CED00E000E400E0FFF746F9FFF794FFE5
:1010A000FFF7A4FEFFF7D6FEFFF70EFFFEE702E014
:1010B00008C8121F08C1002AFAD1704770470020E3
:1010C00001E001C1121F002AFBD17047000000009F
:1010D00000000000010203040607080900110008CF
:1010E0000000002010000000AE10000810110008E1
:1010F0001000002088040000BE100008000000005E
:10110000010000000400000000127A00000000004E
:04000005080000B53A
:00000001FF
