:020000040800F2
:10000000E0040020C9000008E5180008B117000846
:1000100000000000000000000000000000000000E0
:10002000000000000000000000000000E9180008C7
:100030000000000000000000E7180008EB180008AE
:10004000DB00000800000000DB000008DB00000807
:10005000DB000008DB000008DB000008DB00000814
:1000600000000000DB000008DB000008DB000008E7
:1000700099080008DB000008DB0000080000000011
:10008000DB000008DB00000800000000DB000008C7
:10009000DB000008DB000008DB000008DB000008D4
:1000A000DB000008DB000008DB000008DB000008C4
:1000B000DB0000080348854600F0DCFB00480047F1
:1000C000651D0008E00400200448804704480047FC
:1000D000FEE7FEE7FEE7FEE7FEE7FEE77D19000824
:1000E000B500000830B50B4601460020202201244F
:1000F00009E00D46D5409D4205D31D469540491B5C
:100100002546954040191546521E002DF1DC30BDA4
:1001100010B5202A04DB0846203AD040002110BD4B
:100120000B46D340D0402024A21A914008431946E0
:1001300010BDD2B201E00270401C491EFBD27047D4
:100140000022F6E710B513460A4604461946FFF7A3
:10015000F0FF204610BDF8B502464A40D40F4200D9
:100160004B0052085B089A4202D2024608461146EA
:100170004A0023D0C30D4A00DDB2120EAD1A202D65
:1001800035DA49020126490AF6058A19002C00D001
:10019000524220214F1B1146B9402A411018C20D6E
:1001A0009A4221D0002C17D0012D08DCDA05801AE4
:1001B000D20F8019D207DBB200F08FFAF8BDDA0552
:1001C000801A012340001B06C01880185A4280186C
:1001D000CA0F1043490007E04908C2071143DA0576
:1001E000801A80194008801800F06FFAF8BD61008D
:1001F0000122511A001BF7E70122D2075140AAE75A
:100200000122D2075040A6E7024670B54A40D30FFC
:10021000DB0740002DD04A002AD0010E140E000248
:1002200012020919400A520A8418E501044654438F
:10023000000A120A2E045043A4194219200CC54387
:10024000AA18120C0125AD03521C521912047F3951
:10025000240400D0521C104301D44000491EC2B2F5
:100260000C06C0092018401C4008802A02D003E078
:10027000002070BD40084000002900DA002018432B
:1002800070BD0000F0B507460846584087B0C00F63
:10029000049048000E46590040084908BC1A88419D
:1002A00005D2384631461E4617460B4602465800D0
:1002B000400810434CD0300D039040055900400DCC
:1002C000490D0590401A0290402872DA1803012166
:1002D000000B09050843019004980092002805D0FE
:1002E00001995242002088410092019002984021D9
:1002F0000A1A0199009800F0C5F905460C466B46AC
:1003000007CB00F0CFF9C0197141039A0E0D0023FD
:10031000D71756401A467A40164344D0049A002A0A
:100320002DD0029A012A039A15DC1205C01A9141B8
:1003300001263605001C7141D20F059ED20700939D
:10034000019202962A46234600F00DFA07B0F0BD4E
:1003500038463146FAE71605224A0F46B218C01A47
:10036000B74101210905001C4F4100187F4111468A
:1003700018187941E20F10436D19644113E0E20748
:100380006D0815436408C2071443039A0126120539
:10039000C01A91413605001C7141CE074008304318
:1003A0004908C01851412A46234600F0CFF9CDE74D
:1003B000FFE7049801224000C117121A00238B4165
:1003C00004983146C417381AA141EEE730B401242D
:1003D000E407634030BC55E730B40124E4076140D2
:1003E00030BC4FE70000E0FFF0B51FB488B00B99B8
:1003F0000998002448400999C00F4900490809910B
:10040000C0070B990090490049080B910999089879
:10041000A64608431CD00B990A98084318D009989F
:1004200001244000420D4800410D099824050003B5
:10043000000B204309900B980003000B20430B9006
:1004400050181C494018002201901446104605E03F
:10045000002001460DB0F0BD032801DA034600E09C
:1004600003239C46C11A0AAE0AE05F0008ADED5BAB
:100470004F00F75B7D430027AA187C41491C5B1E97
:100480006145F2DD410004AB5A522104120C0A43CB
:10049000240C401C0828DFDB01980290009970466C
:1004A00001910090059B049A0799069800F05BF96A
:1004B000D0E700000DFCFFFFF0B50C465C4085B0B6
:1004C000E40FE40703944C000026640859009446A6
:1004D000490802460296224321D062460A431ED0B2
:1004E0006200570D4A000E032303550D01240246F6
:1004F0002C492405781B1B0B360B4018234326433D
:10050000614600901C46501AB44103D30098401C29
:10051000009002E0921800985B41002803DA002066
:10052000014605B0F0BD00200121090507468646B9
:1005300011E064461D46141BB54106D36546521BA7
:10054000B341744607430C43A646CD07400849080B
:10055000284392185B4105460D43EAD110461843E3
:1005600013D06046194650407140084306D060469B
:10057000101AB34106D20122002306E00022012313
:10058000DB0702E00122D2435310009874460105B4
:10059000381C6141029C039D0019694100F0D6F8A6
:1005A000BFE70000FD0300000EB5054902910021E0
:1005B00000910A460B46019100F0D5F803B000BD4A
:1005C00033040000C20FD207400040080BD0C10D19
:1005D0000723DB01C91840020905400A1143C2087C
:1005E000400711437047002001467047CB0FDB07DF
:1005F000490010B5490802460A4307D00A0D0724EE
:100600000903E401090B121B002A01DC002010BDC4
:10061000C900440F0C43C100E018D205801800F057
:1006200054F810BDF0B51FB40646002082B0054650
:100630004024019100901BE0019922460F4630466C
:10064000FFF766FD049A059B801A994110D3104666
:100650001946224600F016F8361A8F4101972246B5
:1006600001200021009F00F00DF838184D41009046
:100670002046641E0028DFDC019B00982946324694
:1006800007B0F0BD10B5202A04DB0146203A9140A6
:10069000002010BD914020239C1A0346E3401943DB
:1006A000904010BD10B5202A06DBCB170846203A33
:1006B0001041C1170B4306E00B461341D0402024E4
:1006C000A21A91400843194610BD002904DA401CC3
:1006D000490001D140084000704770B40024050C67
:1006E00005D11024000402D1002921D01124050EC7
:1006F00001D100020834050F01D10001241D850F2E
:1007000001D18000A41C002801DB4000641C0029EA
:1007100008D020252E1B0D46F540A14000D0012118
:100720002943084301061B1B000ADB1D02D50020DC
:1007300070BC7047DB05181880180029F8DA401CD7
:100740004900F5D170BC40084000704710B5002B3F
:1007500008DA0024401C614192185B411A4301D120
:100760004008400010BDF0B51FB482B005460C0033
:1007700003D0084601F06AFB02E001F067FB20307D
:100780000246009021462846FFF77CFF049B059A0D
:1007900004460F4618431143084314D0184610432B
:1007A0001BD0009840210A1A18460599FFF7B0FCA3
:1007B00005460E46009A05990498FFF763FF084323
:1007C00005D0012004E02046394607B0F0BD0020E6
:1007D000C11705430E432C43374300990E98630518
:1007E000401A7905E40A00220C43FD0A0A3002D5BA
:1007F00000200146E9E70105101969410C9C0D9D97
:1008000000196941FFF7A2FFDFE700004A00090372
:100810000123090B1B0519430A4B10B5520D9A42CF
:1008200002DA0020014610BD064B34339A4203DC45
:100830009A1AFFF76DFC10BD034BD218FFF722FF89
:1008400010BD0000FF030000CDFBFFFF10B5002925
:1008500004DB0124E40740428C412146002B04DBE9
:100860001C460123DB075242A341994200D190422A
:1008700010BD0000064C0125064E05E0E36807CCDC
:100880002B430C3C98471034B442F7D3FFF716FCC7
:100890005C2700087C27000880B5024800F0D7F8E4
:1008A00080BDC04610000020F8B504460027009720
:1008B0000068816803220A40012A05D10168C9073E
:1008C00035D1C168090432D481681B4A114208D06D
:1008D000A06B10210143A163E06B01252843E06375
:1008E00026E0816801252943816052480068524909
:1008F000FFF7F8FB01E00098401E009000980028E8
:10090000F9D100F0D3FA064620680068C0070ED17E
:1009100000F0CCFA801B0328F6D320680068C007DB
:10092000F2D1A06B10210143A163E06BD6E73D46F5
:10093000284601B0F0BDC04617000080EFF31080DC
:1009400072B6FEE7FEB5002302933422825C012AD0
:1009500001D1022256E0019306463436012232705C
:100960000768BB685B0716D400960D684B680124C6
:100970002246AA402D4EB34213D1B86A9043B862C2
:100980002846A0431028019F3A46009E39D1102DD9
:1009900019D02B4818E0816B20230B438363019F00
:1009A0002FE0BB6A1343BB62C06A421E072A2CD2E7
:1009B0002846A0431028019F3A46009E21D1102DC1
:1009C00007D0A00506E01D4819490A6802400A60E0
:1009D00016E0E00516490A6802430A60102D3A46FF
:1009E0000FD1144800681449FFF77CFB0A214143EA
:1009F000029102E00298401E029002980028F9D16C
:100A00003A463770104603B0F0BD22079042CFD06F
:100A100088687A6907210A409042C9D07A698A4376
:100A20007A610840796901437961C1E701100000EA
:100A3000082701400C00002040420F00FFFF7FFF0D
:100A4000FFFFBFFF704770470068006C7047B0B58C
:100A500004460068016845680D402A07920F11D0CE
:100A6000A26BD20604D401225202A36B1343A363E8
:100A7000C2681205920F27D02046FFF7E3FF2068D7
:100A80000C21016029060AD501200004A16B014355
:100A9000A163204600F0DAF8206880210160E906B1
:100AA00011D5A16A012902D0C168C90709D0E16B3B
:100AB00002220A43E263102101602046FFF7C3FFD0
:100AC000206810210160B0BD0907D5D5A17E00299D
:100AD000D2D1816849070AD441680C229143416010
:100AE000FF200230A16B8143481CA063C4E7A06BC8
:100AF00020210143A163E06B01210143E163BBE7D6
:100B0000F8B5002862D0044605463835806B0028C9
:100B100006D1342000212154E163204600F098F8EA
:100B20002868C0064CD420688168490748D48121D0
:100B300049002A688A43911C2960826803210A407F
:100B4000012A05D10268D2070ED1C26812040BD463
:100B5000C26818239A43A3681343C36089070269D4
:100B60008A43616811430161C168364A0A40C26024
:100B7000A16A491E4A1E91410903227E9203637EA7
:100B8000DB031343A27E56031E43E3682769334306
:100B90000B43B91E4E424E41B6001E432421615CF8
:100BA00049003143E37E012B16D1002A11D0A26BFC
:100BB00020231343A363E26B01231343E3630BE09E
:100BC0002868102101430120296000E0012001B0C4
:100BD000F0BD012212041143E269FF23C2339A429D
:100BE00002D00A43216A1143C2680A43C260E26A22
:100BF000531E072B20D243690726B343436132407B
:100C0000436913434361C0680F4A02408A4207D1D7
:100C10000020E063A26B0121114302229143D3E73C
:100C2000A06B1021014302208143A163E16B0120ED
:100C300001433C342546C7E701231B079A42DAD01B
:100C4000E1E7C0461902FEFFE7FF3F83704700005F
:100C50001CB500680B49884200D01CBD0120400231
:100C6000BA490A6802430A60096801400191019883
:100C70000C24002120460A4600F076F9204600F0B8
:100C800067F91CBD0024014070B5044601688A68FC
:100C9000022052070FD43422A25C012A0BD0254631
:100CA000343501262E70607E012806D02046FFF7DD
:100CB000FBFD002800D070BD2168A06B074A0240F0
:100CC00030021018A0630020E06328701C220A6024
:100CD0008A68042313438B6070BDC046FEF0FFFF9B
:100CE000B0B5044600F0E2F80546601C02D08C481E
:100CF0000078041900F0DAF8401BA042FAD3B0BD26
:100D0000F0B588B007466048874201D0052000E072
:100D1000032000900022069214460597ACE00125BE
:100D20000295A5402E40002E00D1A0E0049403922D
:100D30004A68032314461C40601E01281AD8032366
:100D40000192069A9340B8689843CF68974007434A
:100D5000059887600198C006C00F049A9040059FCF
:100D60007F68AF43074305984760059FD843550008
:100D7000019A08E01846069DA840C043032C02D102
:100D8000069D1C461CE0FB6803408F68AF401F4374
:100D9000059BDF60059F022C12D11C22039B1A4089
:100DA0000F239340049CE408A4003C19276A9F4346
:100DB0000B6993403B43059F23624A680324144018
:100DC000AC403B68034023433B609003800F039A91
:100DD000049C4CD05D4803460068029D284318607F
:100DE00018682840079023460C2414400F20A04088
:100DF00003229343079A264A15469A5882435B1961
:100E00000920C006874208D02248874207D02248DE
:100E10008742009804D1022002E0002000E00298FE
:100E2000A04010431860194880684B68DA0201D569
:100E3000304300E0B043049C144A9060D0689A02AA
:100E400001D5304300E0B043104AD06050689A03A7
:100E500001D5304300E0B0430C4A50601068DA031B
:100E600001D5304300E0B043039A084B1860121DCF
:100E70000698801C0690641C0E683046E04000D046
:100E80004DE708B0F0BDC046000C0048000401402A
:100E9000080001400004004800080048002A01D072
:100EA000182200E0282281507047000005480068A1
:100EB0007047C0461A48007802490A68101808604E
:100EC0007047C046D800002080B5AA4801681022AB
:100ED0000A430260032000F005F800F023F8002028
:100EE00080BDC04670B504467D20C0000C4E3178F0
:100EF000FFF7F8F80146A7480068FFF7F3F800F09D
:100F00006DFB0125032C08D8002806D10025E843F5
:100F100021462A4600F028F87460284670BDC04675
:100F20000400002082B009480168012211430160D9
:100F30000168114001910199110742680A4342601A
:100F4000406808400090009802B0704718100240B6
:100F5000002805DB1F210840012181400148016074
:100F60007047C04600E100E080B500F0CBFE80BDD8
:100F7000F0B585B004468078C0073A4B5CD00122BA
:100F800011071868C0000191029202D50020039059
:100F900007E018680843186018680840049004982F
:100FA0000392314E3068C00511D4029807023068B0
:100FB00038433060FFF77AFF05463068384206D183
:100FC000FFF774FF401B6428F7D9032546E003258B
:100FD0002802244B59680140002920D06268024051
:100FE00091421CD00298000459685A6802435A6022
:100FF0005A6882435A6008461C4A10405860C80725
:101000000DD0FFF753FF06465B4F164B586880071D
:1010100005D4FFF74BFF801BB842F6D91EE0586895
:10102000124908406168014359600398002803D0C1
:1010300018680199884318602068C10705D059696C
:1010400003229143A2680A435A610025800605D510
:10105000586910218843E16801435961284605B069
:10106000F0BDC0461C10024000700040FFFCFFFFB6
:10107000F8B500282ED004463E4B1A6801200240E5
:101080008A4208D21A680126B2430A431A601A68D3
:1010900032408A426BD1009121688A0710D54A07F5
:1010A00006D5072212024B4B1D461B6813432B60CB
:1010B000484A15461268F0239A43A36813432B60ED
:1010C000C9072AD06168434A121F012904D1126856
:1010D000920307E001264AE01268022901D1920139
:1010E00000E09207064642D53A48024600680326C9
:1010F000B04308431060FFF7D9FE07461E4D354840
:1011000000680C21014060688000814205D0FFF733
:10111000CDFEC01BA842F2D929E0164A106801266C
:1011200030400099884207D91068B04308431060E6
:101130001068304088421AD12078400708D507202F
:10114000000224490A4609688143E06808431060A8
:1011500000F024F81F4909680906090F074A515C85
:10116000C8400C4908600320FFF7BCFE002630464B
:1011700001B0F0BD002002408813000044270008A1
:1011800004480068134909684905490F024A515C3F
:10119000C84070470C0000205427000810B50D49C6
:1011A0000A680C2313400C48082B08D193021B0F2C
:1011B0000AA4E45C896AD20303D4104807E0044619
:1011C00006E00F22114009A2515CFEF78BFF444359
:1011D000204610BD0410024000127A0002030405EC
:1011E000060708090A0B0C0D0E0F1010010203046C
:1011F00005060708090A0B0C0D0E0F1000093D002B
:10120000F0B587B007460120002F00D1DDE1049042
:101210003878C007EE4E059753D071680C20014016
:10122000042906D071680140082909D17068C003FB
:1012300006D53068800344D57868002841D16FE036
:101240007968002904D001291AD1012001041FE086
:101250000120010432688A433260810432688A4383
:1012600032604404FFF722FE0546059F30682042A5
:1012700027D0FFF71BFE411B03206429F6D9A4E108
:101280003068052907D101218A0410433060090420
:101290003068084306E001210A0490433060890465
:1012A00030688843306001204404FFF7FFFD0546A5
:1012B0003068204205D1FFF7F9FD401B6428F7D9BB
:1012C00056E13878800744D570680007800F1BD03E
:1012D00070680C210140082902D17068C00313D541
:1012E000059CE168306800291CD00121084330606A
:1012F000FFF7DCFD05463068800723D4FFF7D6FDF5
:10130000401B0228F7D933E130688007059A02D5DF
:10131000D068012804D13068F8218843116915E0AC
:10132000049852E1012188433060FFF7BFFD054674
:10133000306880070DD5FFF7B9FD411B0320022956
:10134000F6D942E13068F82188432169C900014398
:101350003160059C2078000721D5E169706A002979
:101360000ED0012108437062FFF7A0FD0546706AA8
:10137000800714D4FFF79AFD401B0228F7D9F7E045
:10138000012188437062FFF791FD0546706A80076E
:1013900005D5FFF78BFD401B0228F7D9E8E0207840
:1013A00040071BD42078C0067AD5059A51690129D7
:1013B0004ED1706B042101437163706B01210143B5
:1013C0007163FFF773FD0546706B800760D4FFF70C
:1013D0006DFD411B03200229F6D9F6E00122110719
:1013E000F069C0000191039202D50020029007E04D
:1013F000F0690843F061F06908400690069802928F
:10140000744F3868C00511D403980402386820432B
:101410003860FFF74BFD05463868204206D1FFF7DC
:1014200045FD411B03206429F6D9CEE0059881686B
:10143000694F002917D00129039A06D0306A05297F
:1014400000D084E0042108433062306A104383E016
:10145000706B491D67D1042188437063706BF8215C
:101460008843916919E0306A039988433062306A91
:10147000042188433062FFF719FD0546306A800772
:1014800078D5FFF713FD411B0320B942F6D99CE044
:10149000706BF821884305998969C900014371631C
:1014A0000598046A002C00D18EE070680C21014080
:1014B000082917D1012C049800D186E001200304EB
:1014C00071680B40F26A059D6C6AA3427DD10F23BF
:1014D0001A40EC6AA24278D19A041140AA6A914259
:1014E00072D072E0012002063168049291433160AB
:1014F0004706FFF7DBFC0546022C0AD1049C306846
:10150000384241D0FFF7D2FC411B03200229F6D913
:101510005BE03068384257D0FFF7C8FC411B03201E
:101520000229F6D951E0042108437063706B012150
:1015300088437063FFF7BAFC0546706B8007AFD530
:10154000FFF7B4FC411B03200229F6D93DE090438C
:101550003062306A042188433062FFF7A7FC0546F9
:10156000306A800706D4FFF7A1FC401BB842F7D9C8
:1015700003202AE002980028059C00D112E7F069B8
:1015800001998843F0610DE7F06A0F218843059ABD
:10159000D16A0143F1623D20000471688143906A81
:1015A0000843516A01437160306820433060FFF79F
:1015B0007DFC04463068384206D1FFF777FC011BFA
:1015C00003200229F6D900E0002007B0F0BDC04694
:1015D000001002400070004088130000401E010E01
:1015E00001D0012070470749074A50600748036847
:1015F0000B400321890759180160002090600721E2
:1016000011607047FFFFFF0010E000E020ED00E0F8
:10161000B0B500282DD00446C06F002805D1782031
:1016200000212154204600F027F82420E06720689C
:1016300001680125A9430160204600F089FA0128CC
:1016400018D0606A002802D0204600F098F90120E6
:10165000C102226853688B43536091680823994301
:101660009160116801431160204600F0E5F90546DC
:1016700000E001252846B0BD10B586B0044601A89B
:101680001421FEF75DFD2068954988421FD1012095
:101690008103834A53680B43536053680B400093A4
:1016A0000099410413680B43136012680A400092CA
:1016B00000990590002003900220029003200490DE
:1016C000400201900920C00601A9FFF719FB06B0EE
:1016D00010BDC046F0B585B004930746C06F202802
:1016E00051D10D46012000295DD01646002A5AD05E
:1016F00001200403B968A14204D13969002901D14C
:10170000E90750D184200021029139502120F86747
:10171000FFF7CCFB039052203E5250203E52B86857
:10172000A04208D138690028294600D00021029142
:10173000002800D105463C46523412E0002D04D06A
:101740003868297801856D1C08E0029A10881749CD
:10175000084039680885921C029235462088401E50
:1017600020802088002810D06846049901608021DC
:10177000002638463246039B00F080FA0028DDD070
:101780002020F8670EE002200DE068460499016011
:10179000402100223846039B00F070FA2021F967AF
:1017A000002800D0032005B0F0BDC046FF010000B6
:1017B000FEE70000BFB52422144800218154012413
:1017C000846201620422124BFF25C235036041602E
:1017D0008160C160046142618161C56103910291D0
:1017E0000191FFF78DF9002801D0FFF7A7F810202D
:1017F00001902007039020030290044801A9FFF7FD
:10180000A1F8002801D0FFF799F8BFBD1000002013
:1018100000240140F0B587B0002406940125E904B6
:101820001F4802680A43026002680A400192019957
:10183000A90502680A43026002680A400192019900
:10184000A90402680A43026002680A4001920199F1
:10185000690402680A430260006808400190019828
:101860006F03104839462A46FFF718FB0E48022638
:1018700031462246FFF712FB059404940395029724
:1018800002AF08483946FFF73BFA059404940395E4
:10189000029605483946FFF733FA07B0F0BDC04657
:1018A00014100240000800480004004810B50B481E
:1018B0000C210022E94B02624262E124640218C05A
:1018C000026042608260C160026142610838FFF7D5
:1018D0009FFE002801D0FFF731F810BD5000002016
:1018E00000380140FEE77047704780B5FFF7E2FA25
:1018F00080BD70B594B008AC201D1C21FEF720FC03
:101900000025079506950595049503950295019583
:10191000009501200D900B90122008901395052042
:10192000C004129011950226109610200E900C9073
:101930002046FFF765FC002803D0EFF3108072B655
:10194000FEE70795069505960720049004A8012454
:101950002146FFF78DFB002803D0EFF3108072B60D
:10196000FEE7029500946846FFF702FB002803D0CB
:10197000EFF3108072B6FEE714B070BD7047B0B5DB
:10198000416ACA0707D00122520403685C68944385
:10199000826A22435A608A0707D50122120403682B
:1019A0005C689443C26A22435A604A0707D5012201
:1019B000920403685C689443026B22435A600A07EE
:1019C00007D50122D20303685C689443426B22432B
:1019D0005A60CA0607D50122120303689C68944323
:1019E000826B22439A608A0607D50122520303685C
:1019F0009C689443C26B22439A604A0610D5012228
:101A00001305026854689C43056C2C4354609D4246
:101A100006D103235B0554689C43436C2343536006
:101A2000090607D50121C904026853688B43806CFD
:101A300018435060B0BD0000F8B50446842000266D
:101A40002650FFF733FA05462068016809071AD5C2
:101A500027486946086001277905002220462B4661
:101A600000F00CF900280DD0EFF3108087F31088F8
:101A700021680A6880239A430A6080F31088202036
:101A8000E06728E020680068400726D518486946C6
:101A900008600127B905002220462B4600F0EEF829
:101AA00000281AD0EFF3108087F31088092149012C
:101AB000226813688B43136080F31088EFF3108063
:101AC00087F3108821688A68BA438A6080F3108897
:101AD000802020212150032006E02020E067802183
:101AE00060502666666630467821665401B0F0BDC7
:101AF000FFFFFF01B0B5EFF31082012181F31088E1
:101B000009235B01046825689D43256082F31088E2
:101B1000EFF3108281F3108803689C688C439C600B
:101B200082F31088026E012A0AD1EFF3108281F34A
:101B3000108801680B681024A3430B6082F310889F
:101B4000802120224250002181660166B0BD000044
:101B5000F8B50446C169426903698568006806688A
:101B60003C4F37401D4315430D433D430560032261
:101B7000120343689343E2681A434260A269236AEE
:101B800013430B221202856895431D438560324A38
:101B9000904209D0314A904208D13148006880070C
:101BA000000F30A2135802E0002300E010230125AB
:101BB000EA03304891420DD1082B44D87B441B796D
:101BC0005B009F4404401B40154040401A00FFF753
:101BD000D7FA0FE0082B36D87B441B795B009F4473
:101BE000043223321D3232322200FFF7C9FA17E0E5
:101BF000FFF7D4FA002801D124E0104640006168C4
:101C00004A081018FEF76EFA0246103A1A498A423C
:101C100019D201400007400F084311E0FFF7BEFA58
:101C2000002801D10EE0104661684A081018FEF73E
:101C300059FA0246103A10498A4204D20F3108403C
:101C40002168C86000250020A066E066284601B033
:101C5000F0BDC046F369FFFF00440040003801407A
:101C600030100240000000000400000008000000E6
:101C70000200000000127A00F0FF0000F8B50093A7
:101C800017460E4605460368069CD9693140891BF4
:101C90004A424A41BA4224D1611CF6D0FFF706F904
:101CA0000322002C1ED00099401AA0421AD82B689B
:101CB00019684907E9D5D969090716D4D969090509
:101CC000E3D50121C902196228462C461546FFF7C3
:101CD00011FF2A4678200021215484202021215000
:101CE00000E00022104601B0F0BD08241C62284626
:101CF000FFF700FF78200021295484202C50012276
:101D0000F0E70000002805DB0322034693430C4A5A
:101D10009A1806E00F220240083A03239A43074B21
:101D2000D2188007C00E8901C9B28140FF238340C9
:101D300010689843084310607047C0461CED00E0EF
:101D400000E400E0E0B50190044801A90122044B41
:101D5000FFF7C0FC019802B080BDC04650000020D3
:101D6000FFFF000082B0FFF7AFF8FFF7C2FDFFF7FB
:101D700051FDFFF79BFDFFF71DFD1F4D1D4C20463C
:101D8000FEF782FF2046FEF75FFEFEF70DFC2A46B7
:101D90001A4BFEF729FB00263246194BFEF78CFB47
:101DA000FEF724FC07461749FEF72EFA1649FEF700
:101DB000D2F9FEF707FC2A46144BFEF77DFB3246AC
:101DC000134BFEF75FFAFEF711FCFEF7FBFB06462E
:101DD0000C463846FEF7F6FB02466846066044604D
:101DE0000CA00B4600F022F87D208000FEF778FF63
:101DF000C4E7C046100000206666666666660A4054
:101E000000FEAF4000007AC40000BE446666124087
:101E100000003E4076743D25663C2D2D2D2D2D3E37
:101E200074656D703D25660D0A0000000FB410B595
:101E300003A9044B044A029800F0E8F810BC08BC5F
:101E400004B01847451D0008000000202021020CA6
:101E500001D010211046020A01D0104608390209AB
:101E600001D01046091F820801D01046891E420881
:101E700001D0881E7047081A704702E008C8121F78
:101E800008C1002AFAD170477047002001E001C163
:101E9000121F002AFBD17047F0B51FB486B0099815
:101EA000089A030D0021024314D05148514A1818D2
:101EB000504305141198012810981AD0281A401C74
:101EC00000264D4F4D49009601910490002812DAEA
:101ED000444211E01198012449A3012801D110982E
:101EE000C1430698119A84600360C26041600BB0E0
:101EF000F0BD4042E4E70446210500203F4A001CB3
:101F000051410391029012E0E00707D032463B4670
:101F100001990098FEF768FA0191009032463B461D
:101F200010461946FEF760FA06460F466410002C6C
:101F3000EAD10498039B0028029A0999089806DAC6
:101F4000FEF752FA019B009AFEF74EFA05E0FEF703
:101F5000B3FA019B009AFEF7AFFA04460E46002240
:101F6000284BFEF773FC03D80020C043014607E06E
:101F70000022254B20463146FEF784F9FEF746FC49
:101F8000102409E0002C0ADB0A220023FEF74AFB9A
:101F9000079B30321A55641E02460A43F2D11122C1
:101FA000641C079B121B1C19119B012B03D00123DE
:101FB00008430ED10AE0084304D0112010900020FD
:101FC000119077E71098151A6D1E0BE01098824259
:101FD00002DD00236D1C03E0824201DA00236D1E46
:101FE000002BEED0069811998260C16030C07EE768
:101FF00001FCFFFF104D0000000014400000F03F06
:10200000300000000000F0430000E03FFFB597B053
:102010000646002518E2252877D100242746FD49E9
:10202000049400E00443761C32780120203A90406A
:102030000842F7D130782A280ED0022230780146A3
:102040003039092916D804990A23594330394018E0
:102050001443761C0490F1E7189802C80491189074
:10206000002904DA0120400304434842049002207E
:102070000443761C30782E2814D104200443707851
:10208000761C2A2809D11898761C80C8189009E077
:102090000A214F43303FC719761C3078014630394A
:1020A0000929F5D930786C2810D006DC4C281AD0D4
:1020B00068280ED06A2817D104E0742813D07A2833
:1020C00012D110E00120400504430CE00121090574
:1020D00001E0032109050C437178814203D10120FD
:1020E00000052418761C761C3078119066280BD0D9
:1020F00013DC58287DD009DC00287BD04528F6D099
:102100004628F4D047281AD1A5E118E0632835D035
:10211000642870D0652812D19DE170286CD008DC4D
:102120006728F1D069287BD06E280DD06F2806D1A2
:10213000BAE073282ED0752871D0782859D01A9A11
:10214000199990476D1C7EE16002400F022809D06A
:1021500003280DD00428189801680DD00D60001DCB
:10216000189070E11898EA1701680D604A60F6E768
:10217000189801680D80F2E70D70F0E718986A462C
:1021800001781172001D18900020507202A8009072
:10219000012005E0189802C8189000200091C04363
:1021A00061070DD5002101E00199491C0191B94257
:1021B00012DA8142F8DB009A515C0029F4D10BE07D
:1021C000002101E00199491C01918142FADB019A49
:1021D0000099895C0029F5D1019904981A9B471A46
:1021E00021463846199A00F097FA01994019451886
:1021F0000BE04FE02CE113E04EE0009800990078EE
:10220000491C00911A9A199990470198401E019013
:10221000401CF2D1214638461A9B199A10E137E04A
:102220000A200021009001916002410F022907D08D
:10223000189A01CA1892C2179446032908D00AE0D6
:102240001898C01DC108C90005C91891944607E037
:1022500000B2C2179446042902D140B2C1178C467D
:1022600000226146944506DA0A4600214042914127
:102270008C462D2102E0210504D52B216A461173DD
:10228000012103E0E10701D02021F7E7029155E0A9
:102290000A200AE0102008E010200090002104200D
:1022A00004430191082703E00820002101910090D8
:1022B0006002410F022907D0189A01CA1892002221
:1022C0009446032908D008E01898C01DC108C90029
:1022D00005C91891944603E080B2042900D1C0B228
:1022E00000210291210729D51199702906D0009A61
:1022F0001021019B4A401A4305D00EE040216A4656
:102300001173012108E06146014306D030216A467D
:1023100011731199517302210291009A0821019BB6
:102320004A401A430AD16146014301D1610705D5EC
:1023300030216A46117301217F1E0291119958299B
:1023400004D035A10E910DA90D910DE037A1F9E74B
:102350006146019B009AFEF765F90E9B8C469B5CDB
:102360000D9A521E0D92137061460143F0D10D98E3
:1023700005A9081A20300190600703D50120000448
:10238000844300E001270198874201DD381A00E00C
:102390000020019900904118029809180498401AE9
:1023A0000490E00306D421461A9B199A049800F081
:1023B000B3F94519002706E003A81A9AC05D1999D8
:1023C00090476D1C7F1C02988742F5DBE0030CD51B
:1023D00021461A9B199A049800F09EF9451904E0C9
:1023E0001A9A3020199990476D1C0099481E009048
:1023F0000029F5DC08E00D980D990078491C0D9135
:102400001A9A199990476D1C0199481E019000294C
:10241000F1DC63E1092801003031323334353637DD
:102420003839616263646566000000003031323320
:1024300034353637383941424344454600000000C0
:1024400000F05AF94519761C3078002800D0E2E5F2
:1024500028461BB0F0BD600700D406271898C01DA1
:10246000C108C90048680A680831C30FDB07189122
:10247000190001D09CA108E0210501D59BA104E031
:10248000E10701D09AA100E09AA1430011985B08EE
:10249000109165280CD006DC452809D046281DD0AF
:1024A000472841D141E0662818D067283CD13CE05C
:1024B0000021112F01DB112000E0781C0191009018
:1024C00008A911A8FFF7E8FC139905910021119ABA
:1024D00015927F1C12980197009150E00120C007CF
:1024E00003900120019008A9009711A8FFF7D4FCE0
:1024F000139A149905920022119B00921298159339
:10250000059A0192002901D0104602E0791C40187A
:102510000190381A01D5019804E04042401E009015
:10252000781C0190C01B029043E0012F00DA0127C4
:102530000021112F01DD112000E0384601910090AB
:1025400008A911A8FFF7A8FC13990591119A002179
:10255000129815920091019721070CD40599B94260
:1025600001DB019900E00191012904DD159A491E62
:10257000515C302906D0B84201DA011D05DA01218B
:10258000029115E00199491EEDE7002805DC00994C
:10259000411800910199091A03E0019A411C9142E6
:1025A00000DD01910099401A401C02900120C007F3
:1025B0000390200706D402990198814202DB002093
:1025C000C043029000206946C87707AF01210398F5
:1025D0000337C907884224D0022011902B20129083
:1025E000039800280CDA404203902D20129007E057
:1025F0000A210398FDF776FD30317F1E0390397074
:102600001199481E11900029F2DC03980028EFD19F
:10261000791E129808703078202108404530BF1E7E
:10262000387006A8C01BC01D0390109800780028C1
:1026300000D00120019941180298C0170918039889
:1026400009180498401A401E0490E00306D421465D
:102650001A9B199A049800F05FF8451910980078B1
:10266000002803D01A9A199990476D1CE00324D5CD
:1026700021461A9B199A049800F04EF845191CE05F
:102680000098002807DB00990598884203DD15981B
:10269000405C199901E0199930201A9A90470098E6
:1026A0006D1C401C00900298401E0290002804D12E
:1026B0001A9A2E20199990476D1C0199481E019075
:1026C0000029DDDC05E038781A9A7F1C19999047BB
:1026D0006D1C0399481E03900029F4DC21461A9BC7
:1026E000199A0498ACE600002D0000002B000000B1
:1026F0002000000000000000F8B5044600251E463A
:102700001746880404D405E039462020B0476D1CE4
:10271000641EF9D52846F8BDFFB50446002581B0F2
:102720001E46C80301D5302700E02027880404D5C1
:1027300005E038460399B0476D1C641EF9D528465C
:1027400005B0F0BD0000000000000000010203041D
:1027500006070809000000000102030480270008A2
:1027600000000020100000007A1E000890270008DA
:1027700010000020D00400008A1E000800000000A5
:1027800000000000010000000400000000127A00B8
:04000005080000B53A
:00000001FF
