:020000040800F2
:100000007006002059010008AD0C0008410C0008E2
:1000100000000000000000000000000000000000E0
:10002000000000000000000000000000B10C00080B
:100030000000000000000000AF0C0008B30C000836
:100040006B010008000000006B0100086B01000854
:100050006B0100086B0100086B0100086B010008D0
:10006000000000006B0100086B0100086B01000834
:100070006B0100086B0100086B0100080000000024
:100080006B0100086B010008000000006B01000814
:100090006B0100086B0100086B0100086B01000890
:1000A0006B0100086B0100086B0100086B01000880
:1000B0006B01000800F002F800F03EF80CA030C818
:1000C000083824182D18A246671EAB4654465D46D4
:1000D000AC4201D100F030F87E460F3E0FCCB64660
:1000E0000126334200D0FB1AA246AB4633431847E1
:1000F000F40C0000140D0000103A02D378C878C147
:10010000FAD8520701D330C830C101D504680C6059
:10011000704700000023002400250026103A01D378
:1001200078C1FBD8520700D330C100D50B607047AF
:100130001FB51FBD10B510BD00F07BF91146FFF7CC
:10014000F7FF00F023FE00F093F903B4FFF7F2FF8E
:1001500003BC00F099F900000748804707480047B2
:10016000FEE7FEE7FEE7FEE7FEE7FEE70448054997
:10017000054A064B70470000150D0008B500000841
:100180007000002070060020700200207002002025
:10019000FEB5054610460C46184373D0AE468C4655
:1001A0000020AD1A01469C4167D366460027012412
:1001B0003D46B61A9D4102D313463A462124654670
:1001C00076462F04360C3E432D0CB61A9D4104D3BF
:1001D000150C1B042B4312041034654676462F067B
:1001E000360A3E432D0AB61A9D4104D3150E1B0252
:1001F0002B4312020834654676462F0736093E43E4
:100200002D09B61A9D4104D3150F1B012B43120172
:10021000241D65467646AF07B6083E43AD08B61ABC
:100220009D4104D3950F9B002B439200A41C65466F
:100230007646EF0776083E436D08B61A9D411AD3FD
:1002400092185B41641C16E00018764665464941E9
:10025000B71A9D410191009009D36046B11A9841A7
:100260008E468446009801990025401C6941DD07AF
:1002700052082A435B08641EE6D57246634603B003
:10028000F0BDFFE700200146C046C0462A4623468F
:10029000F5E701E004C0091F0429FBD28B0701D553
:1002A0000280801CC90700D00270704700290BD063
:1002B000C30702D00270401C491E022904D38307E1
:1002C00002D50280801C891EE3E70022EEE70022AF
:1002D000DFE7002203098B422CD3030A8B4211D3A0
:1002E00000239C464EE003460B433CD400224308C7
:1002F0008B4231D303098B421CD3030A8B4201D3B7
:1003000094463FE0C3098B4201D3CB01C01A52414E
:1003100083098B4201D38B01C01A524143098B429E
:1003200001D34B01C01A524103098B4201D30B0187
:10033000C01A5241C3088B4201D3CB00C01A5241AC
:1003400083088B4201D38B00C01A524143088B4271
:1003500001D34B00C01A5241411A00D2014652410A
:10036000104670475DE0CA0F00D04942031000D329
:100370004042534000229C4603098B422DD3030A7E
:100380008B4212D3FC22890112BA030A8B420CD38E
:10039000890192118B4208D3890192118B4204D3B7
:1003A00089013AD0921100E08909C3098B4201D337
:1003B000CB01C01A524183098B4201D38B01C01A71
:1003C000524143098B4201D34B01C01A52410309E8
:1003D0008B4201D30B01C01A5241C3088B4201D397
:1003E000CB00C01A524183088B4201D38B00C01A44
:1003F0005241D9D243088B4201D34B00C01A52411B
:10040000411A00D20146634652415B10104601D3A7
:100410004042002B00D54942704763465B1000D331
:10042000404201B50020C046C04602BD704770473B
:100430007047754600F024F8AE46050069465346FD
:10044000C008C000854618B020B5FFF78FFE60BC1D
:1004500000274908B6460026C0C5C0C5C0C5C0C5EE
:10046000C0C5C0C5C0C5C0C5403D49008D46704728
:1004700010B50446C046C0462046FFF766FE10BDD4
:10048000004870471000002001491820ABBEFEE76D
:10049000260002007047000070B5044600F0EEF838
:1004A0000546601C02D004480078241800F0E6F8E5
:1004B000401BA042FAD370BD00000020F8B5002315
:1004C00003240125BAE02E469E40B44632407CD03B
:1004D0000E79B607B60F012E01D0022E17D186680D
:1004E0002746B6465E00B74000967646BE43B646FF
:1004F000CF68009EB74076463743876046686746B8
:10050000BE430F79FF06FF0F9F40374347600E79C8
:10051000F643B6070ED0C6682746B4465E00B64618
:10052000B7406646BE43B4468F687646B7406646D7
:100530003743C7600E79B607B60F022E14D1DE0816
:10054000B60036180096366A5F07B446FE0E0F27CF
:10055000B646B7406646BE43B4460F697646B740D6
:1005600066463743009E376206682746B4465E00FB
:10057000B646B7406646BE430F79B446BF07BF0FC5
:100580007646B7406646374307604E68B603B60FF7
:1005900053D02D4FBE692E43BE61BE699F08F6073A
:1005A000F60F2A4EBF00BE190096B6680F27B44654
:1005B0009E07360FB646B7406646BE430927FF067C
:1005C000B446B84202D1002710E036E0204FB842CE
:1005D00001D101270AE01F4FB84201D1022705E0EF
:1005E0001D4FB84201D1032700E005277646B740EA
:1005F00066463743009EB760184EB6684F6896430C
:10060000FF0200D51643154FBE60FE684F68964343
:10061000BF0200D51643114FFE607E684F689643B7
:10062000BF0300D516430D4F7E603E684F6896436A
:10063000FF0300D51643094A16605B1C0A6816467C
:10064000DE4000D03FE7F8BD00100240000001404E
:100650000004004800080048000C00480004014065
:10066000426913460B401B0491430B43836170475F
:10067000002A01D08161704781627047014880681B
:100680007047000000000020024881680278891845
:10069000816070470000002010B5064801681022F4
:1006A00011430160032000F007F800F027F8002054
:1006B00010BD00000020024070B504460D4D7D20A5
:1006C0002978C000FFF705FE01460B480068FFF7D8
:1006D00000FE00F09DFA002809D1042C07D2002268
:1006E0002146401E00F01EF800206C6070BD012005
:1006F00070BD0000000000200C00002008B5084874
:100700008169012211438161816911400091C269AF
:1007100001040A43C261C0690840009008BD00009E
:100720000010024010B500F00FFB10BDF8B50F46E9
:10073000060059D03A4D2868C007C00FB84209D208
:10074000286840084000384328602868C007C00F68
:10075000B84249D13068334C81070CD5400704D5E5
:10076000606807210902084360606068F0218843DF
:10077000B168084360603078C00726D070680128EF
:100780000ED0216802280ED0890700292CDA616872
:100790008908890001436160FFF770FF00900DE058
:1007A00021688903F1E78901EFE7FFF767FF009907
:1007B000411A1D48814201D90320F8BD60680C210F
:1007C0000840716889008842EFD12868C007C00FCF
:1007D000B8420BD928684008400038432860286890
:1007E000C007C00FB84201D00120F8BD30784007E3
:1007F00006D56068072109028843F16808436060F4
:1008000000F018F86168094A0906090F515CC840F0
:10081000074908600320FFF74FFF0020F8BD0000E4
:10082000002002400010024088130000D40D000890
:100830000C00002010B5104A51680C200B460340F4
:100840000E48042B17D0082B15D18B020C4C1B0F14
:10085000E45CD26A0A4B1207120F10339A5CC90388
:1008600005D500231946FFF793FC214601E02046F9
:10087000044900F050FA10BD0010024000127A0046
:10088000B40D000800093D00FEB5040070D02078CA
:10089000DC4DC0074AD068680007800F012807D0E8
:1008A00068680007800F022809D16868C00306D570
:1008B000286880033AD560680028E7D036E0616890
:1008C000012914D001208004002901D0052914D069
:1008D0002A68012109048A432A6029688143296022
:1008E0006068002816D0FFF7C9FE06460EE02868AB
:1008F0000121090408432860F2E7296801432960BF
:10090000F5E7FFF7BBFE801B64286ED828688003DC
:10091000F7D50BE0FFF7B2FE064604E0FFF7AEFEA8
:10092000801B6428F1D828688003F7D4207801263A
:10093000800700283CDA68680007800F07D06868E5
:100940000007800F022809D16868C00306D4286810
:10095000800716D5E06801280AD112E0E068002877
:10096000286816D030432860FFF788FE074605E068
:1009700043E1FFF783FEC01B0228C6D82868800722
:10098000F7D52868F82188432169C9000843286001
:100990000EE0400840002860FFF770FE074604E0C4
:1009A000FFF76CFEC01B0228AFD828688007F7D479
:1009B0002078000722D5E0690028686A0ED030430D
:1009C0006862FFF75BFE074604E0FFF757FEC01BB7
:1009D00002289AD8686A8007F7D50FE040084000DF
:1009E0006862FFF74BFE074605E09DE0FFF746FE15
:1009F000C01B022889D8686A8007F7D420780427AA
:100A00004007002860DA00200190E869C00008D49F
:100A1000E969B8060143E961E969014001200091F3
:100A2000019079480168C90511D401688215114304
:100A30000160FFF723FE009005E0FFF71FFE00991D
:100A4000401A642870D870480068C005F5D5A068C1
:100A500001280AD0002801D0052810D0286A4008B3
:100A600040002862286AB84301E0286A30432862BF
:100A7000A068002812D0FFF701FE00900AE0286A63
:100A800038432862F1E7FFF7F9FD0099411A5F4802
:100A9000814249D8286A8007F5D50DE0FFF7EEFDC1
:100AA000009006E0FFF7EAFD0099411A574881429D
:100AB0003AD8286A8007F5D40198002804D0E9695B
:100AC000012000078143E9612078C00635D56069BF
:100AD00001280CD0401D686B23D038436863686BD5
:100AE000400840006863FFF7C9FD064622E0686BD6
:100AF00038436863686B30436863FFF7BFFD0646A1
:100B000004E0FFF7BBFD801B02285BD8686B800701
:100B1000F7D5686BF8218843A169C9000843686369
:100B20000BE0B8436863F4E74CE0FFF7A7FD801BD8
:100B3000022847D8686B8007F7D4206A00285ED067
:100B400069680907890F022942D001263606022862
:100B5000286805D0B0432860FFF790FD044633E0D5
:100B6000B0432860FFF78AFD074604E0FFF786FDE3
:100B7000C01B022826D828688001F7D4E86AE16AF9
:100B8000000900010843E862616AA06A08436968D5
:100B90003D2212049143084368602868304328606E
:100BA000FFF76CFD044604E0FFF768FD001B022818
:100BB00008D828688001F7D521E0FFF75FFD001B0A
:100BC000022801D90320FEBD28688001F5D416E073
:100BD0000128F8D06868E96A01221204636A0240B9
:100BE0009A420AD10907E26A090F914205D10F2101
:100BF00089040840A16A884201D00120FEBD00207E
:100C0000FEBD00000010024000700040881300008C
:100C1000094910B5401E884201D9012010BD074C7A
:100C200060610321081F00F08FF80020A0610720F9
:100C30002061002010BD0000FFFFFF0000E000E089
:100C4000FEE7000030B587B014216846FFF73FFB90
:100C5000144842690121C9040A43426142690A40B9
:100C600005924269C9000A43426142690A400592FD
:100C7000426949110A43426140690B4D08400C1119
:100C80000590012221462846FFF7F2FC00210120B1
:100C9000029103910190009469462846FFF70EFCEB
:100CA00007B030BD0010024000080048FEE7704762
:100CB000704710B5FFF7E8FC10BD30B591B030219A
:100CC0006846FFF704FB00240D94012003900E9466
:100CD0000225102009940490009505200F94C0046B
:100CE0000A900C9408950B946846FFF7CDFD0028F8
:100CF00001D072B6FEE707200C900E9401210D95ED
:100D00000F940CA8FFF712FD002801D072B6FEE781
:100D100011B030BD7047F8B5040C8BB2264682B2D4
:100D20005E430D0C1046370C5843360480190021E1
:100D3000794116466E43370C3604801979412646B0
:100D40006E438919F8BD00008307FF22DB0E9A402D
:100D50008907090E9940002808DB830809489B0091
:100D60001B18186890430843186070470007000F6D
:100D70000838830804489B001B18D869904308432F
:100D8000D861704700E400E000ED00E0FFF784FC6C
:100D9000FFF793FFFFF756FF0124054D640321463B
:100DA0002846FFF75DFCC820FFF776FBF7E7000059
:100DB0000008004802030405060708090A0B0C0D89
:100DC0000E0F10100102030405060708090A0B0C98
:100DD0000D0E0F10000000000000000001020304CF
:100DE00006070809040E000800000020100000009B
:100DF000F8000008140E0008100000206006000033
:100E000014010008010000000400000000000000C0
:040E100000127A0052
:04000005080000B53A
:00000001FF
