:020000040800F2
:10000000A0040020C9000008150D0008410C0008DC
:1000100000000000000000000000000000000000E0
:10002000000000000000000000000000190D0008A2
:100030000000000000000000170D00081B0D000864
:10004000DB00000800000000DB000008DB00000807
:10005000DB000008DB000008DB000008DB00000814
:1000600000000000DB000008DB000008DB000008E7
:10007000DB000008DB000008DB00000800000000D7
:10008000DB000008DB00000800000000DB000008C7
:10009000DB000008DB000008DB000008DB000008D4
:1000A000DB000008DB000008DB000008DB000008C4
:1000B000DB0000080348854600F08EF80048004742
:1000C00025120008A0040020044880470448004787
:1000D000FEE7FEE7FEE7FEE7FEE7FEE7970D000816
:1000E000B500000830B50B4601460020202201244F
:1000F00009E00D46D5409D4205D31D469540491B5C
:100100002546954040191546521E002DF1DC30BDA4
:10011000F0B51FB40646002082B005464024019188
:1001200000901BE0019922460F46304600F020F86F
:10013000049A059B801A994110D31046194622460D
:1001400000F039F8361A8F4101972246012000212C
:10015000009F00F030F838184D4100902046641E92
:100160000028DFDC019B00982946324607B0F0BD2D
:1001700010B5202A04DB0846203AD040002110BDEB
:100180000B46D340D0402024A21A91400843194680
:1001900010BDD2B201E00270401C491EFBD2704774
:1001A0000022F6E710B513460A4604461946FFF743
:1001B000F0FF204610BD10B5202A04DB0146203A8E
:1001C0009140002010BD914020239C1A0346E3403B
:1001D0001943904010BD0000064C0125064E05E075
:1001E000E36807CC2B430C3C98471034B442F7D358
:1001F000FFF764FFB4120008D412000872B6FEE7DD
:1002000070B5044600F0EEF80546601C02D00448C4
:100210000078241800F0E6F8401BA042FAD370BD25
:1002200000000020F8B5002303240125BAE02E4683
:100230009E40B44632407CD00E79B607B60F012EF0
:1002400001D0022E17D186682746B6465E00B74019
:1002500000967646BE43B646CF68009EB7407646C7
:100260003743876046686746BE430F79FF06FF0F36
:100270009F40374347600E79F643B6070ED0C668F5
:100280002746B4465E00B646B7406646BE43B4460F
:100290008F687646B74066463743C7600E79B60723
:1002A000B60F022E14D1DE08B60036180096366A54
:1002B0005F07B446FE0E0F27B646B7406646BE43FC
:1002C000B4460F697646B74066463743009E3762AC
:1002D00006682746B4465E00B646B7406646BE434B
:1002E0000F79B446BF07BF0F7646B740664637431F
:1002F00007604E68B603B60F53D02D4FBE692E432C
:10030000BE61BE699F08F607F60F2A4EBF00BE19F0
:100310000096B6680F27B4469E07360FB646B7401C
:100320006646BE430927FF06B446B84202D10027FD
:1003300010E036E0204FB84201D101270AE01F4FFC
:10034000B84201D1022705E01D4FB84201D1032771
:1003500000E005277646B74066463743009EB76003
:10036000184EB6684F689643FF0200D51643154FE6
:10037000BE60FE684F689643BF0200D51643114F1A
:10038000FE607E684F689643BF0300D516430D4F4D
:100390007E603E684F689643FF0300D51643094AC6
:1003A00016605B1C0A681646DE4000D03FE7F8BDC9
:1003B000001002400000014000040048000800480E
:1003C000000C004800040140426913460B401B0426
:1003D00091430B4383617047002A01D081617047CC
:1003E000816270470148806870470000000000206B
:1003F00002488168027889188160704700000020F7
:1004000010B506480168102211430160032000F076
:1004100007F800F027F8002010BD0000002002407F
:1004200070B504460D4D7D202978C000FFF75AFEB7
:1004300001460B480068FFF755FE00F021FB00283D
:1004400009D1042C07D200222146401E00F01EF8DC
:1004500000206C6070BD012070BD00000000002015
:100460000C00002008B50848816901221143816110
:10047000816911400091C26901040A43C261C069E7
:100480000840009008BD00000010024010B500F0C8
:100490007BFE10BDF8B505460068354CC00352D54B
:1004A000E0690026C00007D4E16920040143E1614E
:1004B000E1690140012600912E480168C90510D468
:1004C0000168821511430160FFF78CFF074604E0C5
:1004D000FFF788FFC01B642824D826480068C005A1
:1004E000F6D5206A03273F02384020D0696839409A
:1004F00081421CD0206A226AB843012109040A43C0
:100500002262226A8A4322622062C0070FD0FFF76C
:1005100069FF009008E0FFF765FF0099411A16484F
:10052000814201D90320F8BD206A8007F3D5206AF3
:100530006968B84308432062002E04D0E1690120B5
:1005400000078143E1612878C00705D0206BA968C6
:1005500080088000084320632878800605D5206B3A
:1005600010218843E968084320630020F8BD00009B
:10057000001002400070004088130000F8B50F46DC
:10058000060059D03A4D2868C007C00FB84209D2BA
:10059000286840084000384328602868C007C00F1A
:1005A000B84249D13068334C81070CD5400704D597
:1005B000606807210902084360606068F021884391
:1005C000B168084360603078C00726D070680128A1
:1005D0000ED0216802280ED0890700292CDA616824
:1005E0008908890001436160FFF7FCFE00900DE07F
:1005F00021688903F1E78901EFE7FFF7F3FE00992E
:10060000411A1D48814201D90320F8BD60680C21C0
:100610000840716889008842EFD12868C007C00F80
:10062000B8420BD928684008400038432860286841
:10063000C007C00FB84201D00120F8BD3078400794
:1006400006D56068072109028843F16808436060A5
:1006500000F028F86168094A0906090F515CC84092
:10066000074908600320FFF7DBFE0020F8BD00000B
:100670000020024000100240881300009C12000875
:100680000C0000200448054900684968044A4905EF
:10069000490F515CC84070470C0000200010024018
:1006A000AC12000810B5104A51680C200B460340EC
:1006B0000E48042B17D0082B15D18B020C4C1B0FA6
:1006C000E45CD26A0A4B1207120F10339A5CC9031A
:1006D00005D500231946FFF71BFD214601E0204602
:1006E000044900F039FD10BD0010024000127A00EC
:1006F0007C12000800093D00FEB5040070D020788F
:10070000DC4DC0074AD068680007800F012807D079
:1007100068680007800F022809D16868C00306D501
:10072000286880033AD560680028E7D036E0616821
:10073000012914D001208004002901D0052914D0FA
:100740002A68012109048A432A60296881432960B3
:100750006068002816D0FFF745FE06460EE02868C0
:100760000121090408432860F2E729680143296050
:10077000F5E7FFF737FE801B64286ED828688003F2
:10078000F7D50BE0FFF72EFE064604E0FFF72AFE42
:10079000801B6428F1D828688003F7D420780126CC
:1007A000800700283CDA68680007800F07D0686877
:1007B0000007800F022809D16868C00306D42868A2
:1007C000800716D5E06801280AD112E0E068002809
:1007D000286816D030432860FFF704FE074605E07E
:1007E00043E1FFF7FFFDC01B0228C6D82868800739
:1007F000F7D52868F82188432169C9000843286093
:100800000EE0400840002860FFF7ECFD074604E0DA
:10081000FFF7E8FDC01B0228AFD828688007F7D48F
:100820002078000722D5E0690028686A0ED030439E
:100830006862FFF7D7FD074604E0FFF7D3FDC01B52
:1008400002289AD8686A8007F7D50FE04008400070
:100850006862FFF7C7FD074605E09DE0FFF7C2FDB0
:10086000C01B022889D8686A8007F7D4207804273B
:100870004007002860DA00200190E869C00008D431
:10088000E969B8060143E961E96901400120009185
:10089000019079480168C90511D401688215114396
:1008A0000160FFF79FFD009005E0FFF79BFD0099B9
:1008B000401A642870D870480068C005F5D5A06853
:1008C00001280AD0002801D0052810D0286A400845
:1008D00040002862286AB84301E0286A3043286251
:1008E000A068002812D0FFF77DFD00900AE0286A7A
:1008F00038432862F1E7FFF775FD0099411A5F4818
:10090000814249D8286A8007F5D50DE0FFF76AFDD6
:10091000009006E0FFF766FD0099411A57488142B2
:100920003AD8286A8007F5D40198002804D0E969EC
:10093000012000078143E9612078C00635D5606950
:1009400001280CD0401D686B23D038436863686B66
:10095000400840006863FFF745FD064622E0686BEB
:1009600038436863686B30436863FFF73BFD0646B6
:1009700004E0FFF737FD801B02285BD8686B800717
:10098000F7D5686BF8218843A169C90008436863FB
:100990000BE0B8436863F4E74CE0FFF723FD801BEE
:1009A000022847D8686B8007F7D4206A00285ED0F9
:1009B00069680907890F022942D0012636060228F4
:1009C000286805D0B0432860FFF70CFD044633E0EB
:1009D000B0432860FFF706FD074604E0FFF702FD7D
:1009E000C01B022826D828688001F7D4E86AE16A8B
:1009F000000900010843E862616AA06A0843696867
:100A00003D221204914308436860286830432860FF
:100A1000FFF7E8FC044604E0FFF7E4FC001B0228B3
:100A200008D828688001F7D521E0FFF7DBFC001B20
:100A3000022801D90320FEBD28688001F5D416E004
:100A40000128F8D06868E96A01221204636A02404A
:100A50009A420AD10907E26A090F914205D10F2192
:100A600089040840A16A884201D00120FEBD00200F
:100A7000FEBD00000010024000700040881300001E
:100A8000094910B5401E884201D9012010BD074C0C
:100A900060610321081F00F077FB0020A0610720A0
:100AA0002061002010BD0000FFFFFF0000E000E01B
:100AB00010B5040003D0E06F002802D007E0012049
:100AC00010BD002178200155204600F027F8242091
:100AD000E06720680168490849000160204600F08D
:100AE00053FA0128ECD0606A002802D0204600F0BA
:100AF00053F9206841680122D20291434160206885
:100B000081680822914381602068016801221143B5
:100B10000160204600F0A6F910BD000010B586B0B7
:100B2000044614216846FFF73BFB134920688842BE
:100B30001FD112488269012189030A4382618269B7
:100B40000A4005924269C9000A434261406908406F
:100B500005900320400200900220019000200290A6
:100B6000032003900120049009206946C006FFF786
:100B700059FB06B010BD00000038014000100240D3
:100B8000FFB50446C06F83B017460D46202802D03B
:100B9000022007B0F0BD002D0BD0002F09D001209E
:100BA000A1680003814206D12069002803D1E8072B
:100BB00001D00120EDE70021842001512120E067D0
:100BC000FFF710FC264640360190378277820120DD
:100BD000A1680003814202D12069002802D02F467B
:100BE000002511E000270FE000228021204600F0C0
:100BF00063FA002815D1002F17D0216838780885AE
:100C00007F1C708A401E7082708A019B00280698A3
:100C10000090E9D100224021204600F04DFA002842
:100C20000AD02020E0670320B3E728882168C005A8
:100C3000C00D0885AD1CE4E72020E0670020A8E790
:100C4000FEE70000F0B587B014216846FFF7A8FA68
:100C50001F4842690121C9040A43426142690A40AE
:100C600005924269C9000A43426142690A400592FD
:100C7000426909110A43426142690A400592426988
:100C800049100A4342614069124E08400C11059018
:100C9000012221463046FFF79FFB0F4F0022022121
:100CA0003846FFF799FB0094002401250195029432
:100CB000694630460394FFF7B5FA0220009002948B
:100CC0006946019503943846FFF7ACFA07B0F0BDCA
:100CD00000100240000800480004004810B50C480D
:100CE0000A490160E1214902416000218160C1603F
:100CF00001618161C1610C22016242614162FFF7C1
:100D0000D7FE002801D0FFF779FA10BD0038014066
:100D100014000020FEE77047704710B5FFF768FB2E
:100D200010BD70B594B030216846FFF739FA002441
:100D30000E94139410200994022504900D940F949E
:100D40000520129401260095C0040C94109403967B
:100D50000A90119408950B946846FFF7CDFC002883
:100D600001D072B6FEE707200C900E9401210D957C
:100D70000F940CA8FFF702FC002801D072B6FEE722
:100D800010A810961294FFF785FB002801D072B6C8
:100D9000FEE714B070BD704710B5818CC90707D04D
:100DA00001684A6801235B049A43836A1A434A60D4
:100DB000818C890707D501684A6801231B049A437F
:100DC000C36A1A434A60818C490707D501684A689B
:100DD00001239B049A43036B1A434A60818C0907E1
:100DE00007D501684A680123DB039A43436B1A4322
:100DF0004A60818CC90607D50268916801231B03EC
:100E00009943836B19439160818C890607D50168EA
:100E10008A6801235B039A43C36B1A438A60818CFF
:100E2000490612D503685A6801210905046C8A43F2
:100E300022435A60026C8A4207D102685168032338
:100E40005B059943436C19435160818C090607D5B2
:100E500001684A680123DB04806C9A4302434A60BC
:100E600010BD0000FEB507460025803704467D60B2
:100E7000FFF7B8FA01902068006826460007603640
:100E8000002819DA27480090012100224905204650
:100E9000019B00F011F900280ED0EFF31080012122
:100EA00081F3108821680A6880239A430A6080F3DE
:100EB00010882020E06729E020680068400728D5D6
:100EC000184800900121002289052046019B00F06E
:100ED000F3F800281DD0EFF31080012181F3108872
:100EE00021680A68FF2321339A430A6080F310883F
:100EF000EFF31080012181F3108821688A6852087D
:100F000052008A6080F310882020386035760320F4
:100F1000FEBD2020E06738602566656635760020D6
:100F2000FEBD0000FFFFFF0110B5EFF310810122AD
:100F300082F3108802681368FF242134A3431360EE
:100F400081F31088EFF31081012282F31088026888
:100F500093685B085B00936081F31088016E012940
:100F60000BD1EFF31081012282F31088026813681D
:100F70001024A343136081F31088202280210A509B
:100F800000210166816610BD70B504468068216944
:100F9000E26908436169002511432268084311682A
:100FA0003F4B194001431160216848680322120336
:100FB0009043E26810434860A169206A08432168B1
:100FC0008A680B231B029A4302438A6035492068D2
:100FD000884210D13448006B8007800F0ED0012862
:100FE00005D0022805D003280AD1022109E00421F6
:100FF00007E0082105E02D49884201D1002100E0E9
:1010000010210120E369C003294A2A4E834222D1DC
:10101000002906D0022907D0042907D0082935D194
:1010200008E0FFF72FFB03E0104603E0FFF73AFB71
:10103000002830D0616840004A088018FFF752F855
:1010400001461039B14221D81A49491C0140000714
:10105000400F08431DE0002906D0022907D00429CB
:1010600007D0082912D108E0FFF70CFB03E0104677
:1010700003E0FFF717FB00280DD061684A0810183D
:10108000FFF730F801461039B14201D9012502E0DD
:1010900080B22168C8600020A066E066284670BD66
:1010A000F369FFFF00380140001002400044004097
:1010B00000127A00EFFF0000FFB5064681B08036CF
:1010C0000546044660350A9F2EE0781C2CD0FFF7B9
:1010D00089F90499401AB84214D8002F12D0206818
:1010E0000168490720D5C169C94309070CD40827FD
:1010F00007622046FFF718FF77600020287601205E
:1011000005B0F0BD0320FBE7C069C04300050BD468
:1011100001202168C00208622046FFF705FF202059
:10112000706000202876EDE72068C1690298884346
:1011300005D0002103988142C7D00020E0E70121BB
:10114000F8E7000010B5024A024900F04EF810BD61
:101150000912000810000020F8B5040C8BB22646D6
:1011600082B25E430D0C1046370C5843360480198A
:101170000021794116466E43370C360480197941B7
:1011800026466E438919F8BD8307FF22DB0E9A407D
:101190008907090E9940002808DB830809489B004D
:1011A0001B18186890430843186070470007000F29
:1011B0000838830804489B001B18D86990430843EB
:1011C000D861704700E400E000ED00E002E008C8EC
:1011D000121F08C1002AFAD170477047002001E0B1
:1011E00001C1121F002AFBD17047F8B516460F4601
:1011F0000446002503E03946B047641C6D1C207886
:101200000028F8D12846F8BD13B5044B01226946E1
:101210000348FFF7B5FC00981CBD0000FFFF00006D
:1012200014000020FFF7ECF8FFF77BFDFFF70AFD45
:10123000FFF754FD012464030A4D0B4EFF2791373D
:101240000AA0FFF77FFF21462846FFF7BDF864207C
:10125000FEF7D6FF02213046FFF7B6F83846FEF714
:10126000CFFFEDE7000800480004004868656C6C9B
:101270006F20776F726C640D0A0000000203040592
:10128000060708090A0B0C0D0E0F101001020304CB
:1012900005060708090A0B0C0D0E0F1000000000D0
:1012A0000000000001020304060708090000000016
:1012B00001020304D4120008000000201400000002
:1012C000CC110008E8120008140000208C04000073
:1012D000DC11000801000000040000000000000014
:0812E00000127A00000000007A
:04000005080000B53A
:00000001FF
